{
  "contractName": "FishBase",
  "abi": [
    {
      "constant": true,
      "inputs": [],
      "name": "totalPayments",
      "outputs": [
        {
          "name": "",
          "type": "uint256"
        }
      ],
      "payable": false,
      "stateMutability": "view",
      "type": "function"
    },
    {
      "constant": true,
      "inputs": [],
      "name": "round",
      "outputs": [
        {
          "name": "",
          "type": "uint256"
        }
      ],
      "payable": false,
      "stateMutability": "view",
      "type": "function"
    },
    {
      "constant": true,
      "inputs": [],
      "name": "endTime",
      "outputs": [
        {
          "name": "",
          "type": "uint256"
        }
      ],
      "payable": false,
      "stateMutability": "view",
      "type": "function"
    },
    {
      "constant": false,
      "inputs": [],
      "name": "withdrawPayments",
      "outputs": [],
      "payable": false,
      "stateMutability": "nonpayable",
      "type": "function"
    },
    {
      "constant": true,
      "inputs": [],
      "name": "totalRoundPrice",
      "outputs": [
        {
          "name": "",
          "type": "uint256"
        }
      ],
      "payable": false,
      "stateMutability": "view",
      "type": "function"
    },
    {
      "constant": false,
      "inputs": [],
      "name": "renounceOwnership",
      "outputs": [],
      "payable": false,
      "stateMutability": "nonpayable",
      "type": "function"
    },
    {
      "constant": true,
      "inputs": [],
      "name": "owner",
      "outputs": [
        {
          "name": "",
          "type": "address"
        }
      ],
      "payable": false,
      "stateMutability": "view",
      "type": "function"
    },
    {
      "constant": true,
      "inputs": [],
      "name": "basePrice",
      "outputs": [
        {
          "name": "",
          "type": "uint256"
        }
      ],
      "payable": false,
      "stateMutability": "view",
      "type": "function"
    },
    {
      "constant": true,
      "inputs": [],
      "name": "currentLeaderBonusPrice",
      "outputs": [
        {
          "name": "",
          "type": "uint256"
        }
      ],
      "payable": false,
      "stateMutability": "view",
      "type": "function"
    },
    {
      "constant": true,
      "inputs": [
        {
          "name": "",
          "type": "address"
        }
      ],
      "name": "payments",
      "outputs": [
        {
          "name": "",
          "type": "uint256"
        }
      ],
      "payable": false,
      "stateMutability": "view",
      "type": "function"
    },
    {
      "constant": false,
      "inputs": [
        {
          "name": "_newOwner",
          "type": "address"
        }
      ],
      "name": "transferOwnership",
      "outputs": [],
      "payable": false,
      "stateMutability": "nonpayable",
      "type": "function"
    },
    {
      "inputs": [],
      "payable": false,
      "stateMutability": "nonpayable",
      "type": "constructor"
    },
    {
      "anonymous": false,
      "inputs": [
        {
          "indexed": false,
          "name": "nextRound",
          "type": "uint256"
        },
        {
          "indexed": false,
          "name": "nextEndTime",
          "type": "uint256"
        }
      ],
      "name": "eventStartNewRound",
      "type": "event"
    },
    {
      "anonymous": false,
      "inputs": [
        {
          "indexed": false,
          "name": "playerAddress",
          "type": "address"
        },
        {
          "indexed": false,
          "name": "playerValue",
          "type": "uint256"
        }
      ],
      "name": "eventCreatePlayer",
      "type": "event"
    },
    {
      "anonymous": false,
      "inputs": [
        {
          "indexed": true,
          "name": "previousOwner",
          "type": "address"
        }
      ],
      "name": "OwnershipRenounced",
      "type": "event"
    },
    {
      "anonymous": false,
      "inputs": [
        {
          "indexed": true,
          "name": "previousOwner",
          "type": "address"
        },
        {
          "indexed": true,
          "name": "newOwner",
          "type": "address"
        }
      ],
      "name": "OwnershipTransferred",
      "type": "event"
    }
  ],
  "bytecode": "0x6080604052600060035560006004556103846005556000600655662386f26fc100006007556000600855600060095534801561003a57600080fd5b50336000806101000a81548173ffffffffffffffffffffffffffffffffffffffff021916908373ffffffffffffffffffffffffffffffffffffffff1602179055506107068061008a6000396000f3006080604052600436106100ae576000357c0100000000000000000000000000000000000000000000000000000000900463ffffffff1680625b4487146100b3578063146ca531146100de5780633197cbb6146101095780636103d70b146101345780636db759dd1461014b578063715018a6146101765780638da5cb5b1461018d578063c7876ea4146101e4578063da490ace1461020f578063e2982c211461023a578063f2fde38b14610291575b600080fd5b3480156100bf57600080fd5b506100c86102d4565b6040518082815260200191505060405180910390f35b3480156100ea57600080fd5b506100f36102da565b6040518082815260200191505060405180910390f35b34801561011557600080fd5b5061011e6102e0565b6040518082815260200191505060405180910390f35b34801561014057600080fd5b506101496102e6565b005b34801561015757600080fd5b5061016061040f565b6040518082815260200191505060405180910390f35b34801561018257600080fd5b5061018b610415565b005b34801561019957600080fd5b506101a2610517565b604051808273ffffffffffffffffffffffffffffffffffffffff1673ffffffffffffffffffffffffffffffffffffffff16815260200191505060405180910390f35b3480156101f057600080fd5b506101f961053c565b6040518082815260200191505060405180910390f35b34801561021b57600080fd5b50610224610542565b6040518082815260200191505060405180910390f35b34801561024657600080fd5b5061027b600480360381019080803573ffffffffffffffffffffffffffffffffffffffff169060200190929190505050610548565b6040518082815260200191505060405180910390f35b34801561029d57600080fd5b506102d2600480360381019080803573ffffffffffffffffffffffffffffffffffffffff169060200190929190505050610560565b005b60025481565b60035481565b60045481565b600080339150600160008373ffffffffffffffffffffffffffffffffffffffff1673ffffffffffffffffffffffffffffffffffffffff1681526020019081526020016000205490506000811415151561033e57600080fd5b803073ffffffffffffffffffffffffffffffffffffffff16311015151561036457600080fd5b610379816002546105c790919063ffffffff16565b6002819055506000600160008473ffffffffffffffffffffffffffffffffffffffff1673ffffffffffffffffffffffffffffffffffffffff168152602001908152602001600020819055508173ffffffffffffffffffffffffffffffffffffffff166108fc829081150290604051600060405180830381858888f1935050505015801561040a573d6000803e3d6000fd5b505050565b60065481565b6000809054906101000a900473ffffffffffffffffffffffffffffffffffffffff1673ffffffffffffffffffffffffffffffffffffffff163373ffffffffffffffffffffffffffffffffffffffff1614151561047057600080fd5b6000809054906101000a900473ffffffffffffffffffffffffffffffffffffffff1673ffffffffffffffffffffffffffffffffffffffff167ff8df31144d9c2f0f6b59d69b8b98abd5459d07f2742c4df920b25aae33c6482060405160405180910390a260008060006101000a81548173ffffffffffffffffffffffffffffffffffffffff021916908373ffffffffffffffffffffffffffffffffffffffff160217905550565b6000809054906101000a900473ffffffffffffffffffffffffffffffffffffffff1681565b60075481565b60085481565b60016020528060005260406000206000915090505481565b6000809054906101000a900473ffffffffffffffffffffffffffffffffffffffff1673ffffffffffffffffffffffffffffffffffffffff163373ffffffffffffffffffffffffffffffffffffffff161415156105bb57600080fd5b6105c4816105e0565b50565b60008282111515156105d557fe5b818303905092915050565b600073ffffffffffffffffffffffffffffffffffffffff168173ffffffffffffffffffffffffffffffffffffffff161415151561061c57600080fd5b8073ffffffffffffffffffffffffffffffffffffffff166000809054906101000a900473ffffffffffffffffffffffffffffffffffffffff1673ffffffffffffffffffffffffffffffffffffffff167f8be0079c531659141344cd1fd0a4f28419497f9722a3daafe3b4186f6b6457e060405160405180910390a3806000806101000a81548173ffffffffffffffffffffffffffffffffffffffff021916908373ffffffffffffffffffffffffffffffffffffffff160217905550505600a165627a7a72305820d2a01b2d606abbe5f4592261f37e41d43a2dc05295327f45cf7c85ec7a8efc430029",
  "source": "pragma solidity ^0.4.22;\n\nimport \"openzeppelin-solidity/contracts/ownership/Ownable.sol\";\nimport \"openzeppelin-solidity/contracts/payment/PullPayment.sol\";\n\n/// @title Base Contract for FishWarChain. Holds all common structs, events and base variables.\n/// @author Inspius (https://www.inspius.com)\ncontract FishBase is Ownable, PullPayment {\n\t\n\tconstructor() public {}\n\n\t//@dev this game's round.\n\tuint256 public round = 0;\n\n\t//@dev this round's end time.\n\tuint256 public endTime = 0;\n\t\n\t//@dev a round time. 15 minutes.\n\tuint256 roundTime = 15 * 60;\n\t\n\t//@dev total round price\n\tuint256 public totalRoundPrice = 0 ether;\n\n\t//@dev Base price to join this game.\n\tuint256 public basePrice = 0.01 ether;\n\t\n\t//@dev current leader bonus price. start at 0 ether\n\tuint256 public currentLeaderBonusPrice = 0 ether;\n\n\t//@dev 20% of total prev game size will be next Leader Bonus, start at 0 ether.\n\tuint256 nextLeaderBonusPrice = 0 ether;\n\n\t//@dev List of all players in this round.\n    mapping(address => Player) internal players;\n\n\t//@dev eventStartNewRound event is emitted whenever a new round is started.\n    event eventStartNewRound(\n        uint256 nextRound,\n        uint256 nextEndTime\n    );\n\n\t//@dev eventCreatePlayer event is emitted whenever a playe is created.\n    event eventCreatePlayer(\n        address playerAddress,\n\t\tuint256 playerValue\n    );\n\t\n\t//@dev When a Player is created, player can start joining this game's round\n    //until the round is ended. The player's value will start at 0.01 ether \n\t//and increase when a player killed a another player.\n\tstruct Player {\n\t\t\n\t\t//@dev the player's round\n        uint256 playerRound;\n\t\t\n\t\t//@dev the player's value. It should start at 0.01 ether\n        uint256 playerValue;\n\n    }\n\t\n\t//@dev helper to get the dev fee of amount, current is 10%\n\tfunction getDevFee(uint256 amount) internal pure returns(uint256) {\n        return SafeMath.div(SafeMath.mul(amount, 10), 100);\n    }\n\t\n\t//@dev helper to get the leader bonus fee of amount, current is 20%\n\tfunction getLeaderBonusFee(uint256 amount) internal pure returns(uint256) {\n        return SafeMath.div(SafeMath.mul(amount, 20), 100);\n    }\n\n\t//@dev helper to add amount to leader bonus\n\tfunction addNextLeaderBonus(uint256 amount) internal returns(uint256) {\n\t\tnextLeaderBonusPrice = SafeMath.add(nextLeaderBonusPrice, amount);\n        return nextLeaderBonusPrice;\n    }\n\n\t//@dev helper to add amount to total round price\n\tfunction addTotalRoundPrice(uint256 amount) internal returns(uint256) {\n\t\ttotalRoundPrice = SafeMath.add(totalRoundPrice, amount);\n        return totalRoundPrice;\n    }\n}\n",
  "sourcePath": "/Applications/MAMP/htdocs/FishWarChainContract/contracts/FishBase.sol",
  "compiler": {
    "name": "solc",
    "version": "0.4.24+commit.e67f0147.Emscripten.clang"
  },
  "schemaVersion": "2.0.1",
  "updatedAt": "2018-06-22T09:14:26.245Z"
}