{
  "contractName": "FishCore",
  "abi": [
    {
      "constant": true,
      "inputs": [],
      "name": "totalPayments",
      "outputs": [
        {
          "name": "",
          "type": "uint256"
        }
      ],
      "payable": false,
      "stateMutability": "view",
      "type": "function"
    },
    {
      "constant": true,
      "inputs": [],
      "name": "round",
      "outputs": [
        {
          "name": "",
          "type": "uint256"
        }
      ],
      "payable": false,
      "stateMutability": "view",
      "type": "function"
    },
    {
      "constant": true,
      "inputs": [],
      "name": "endTime",
      "outputs": [
        {
          "name": "",
          "type": "uint256"
        }
      ],
      "payable": false,
      "stateMutability": "view",
      "type": "function"
    },
    {
      "constant": false,
      "inputs": [],
      "name": "withdrawPayments",
      "outputs": [],
      "payable": false,
      "stateMutability": "nonpayable",
      "type": "function"
    },
    {
      "constant": true,
      "inputs": [],
      "name": "totalRoundPrice",
      "outputs": [
        {
          "name": "",
          "type": "uint256"
        }
      ],
      "payable": false,
      "stateMutability": "view",
      "type": "function"
    },
    {
      "constant": false,
      "inputs": [],
      "name": "renounceOwnership",
      "outputs": [],
      "payable": false,
      "stateMutability": "nonpayable",
      "type": "function"
    },
    {
      "constant": true,
      "inputs": [],
      "name": "owner",
      "outputs": [
        {
          "name": "",
          "type": "address"
        }
      ],
      "payable": false,
      "stateMutability": "view",
      "type": "function"
    },
    {
      "constant": true,
      "inputs": [],
      "name": "basePrice",
      "outputs": [
        {
          "name": "",
          "type": "uint256"
        }
      ],
      "payable": false,
      "stateMutability": "view",
      "type": "function"
    },
    {
      "constant": true,
      "inputs": [],
      "name": "currentLeaderBonusPrice",
      "outputs": [
        {
          "name": "",
          "type": "uint256"
        }
      ],
      "payable": false,
      "stateMutability": "view",
      "type": "function"
    },
    {
      "constant": true,
      "inputs": [
        {
          "name": "",
          "type": "address"
        }
      ],
      "name": "payments",
      "outputs": [
        {
          "name": "",
          "type": "uint256"
        }
      ],
      "payable": false,
      "stateMutability": "view",
      "type": "function"
    },
    {
      "constant": false,
      "inputs": [
        {
          "name": "_newOwner",
          "type": "address"
        }
      ],
      "name": "transferOwnership",
      "outputs": [],
      "payable": false,
      "stateMutability": "nonpayable",
      "type": "function"
    },
    {
      "inputs": [],
      "payable": false,
      "stateMutability": "nonpayable",
      "type": "constructor"
    },
    {
      "payable": true,
      "stateMutability": "payable",
      "type": "fallback"
    },
    {
      "anonymous": false,
      "inputs": [
        {
          "indexed": false,
          "name": "currentRound",
          "type": "uint256"
        },
        {
          "indexed": false,
          "name": "topPlayers",
          "type": "address[]"
        },
        {
          "indexed": false,
          "name": "topPlayersBonus",
          "type": "uint256[]"
        }
      ],
      "name": "eventEndRound",
      "type": "event"
    },
    {
      "anonymous": false,
      "inputs": [
        {
          "indexed": false,
          "name": "nextRound",
          "type": "uint256"
        },
        {
          "indexed": false,
          "name": "nextEndTime",
          "type": "uint256"
        }
      ],
      "name": "eventStartNewRound",
      "type": "event"
    },
    {
      "anonymous": false,
      "inputs": [
        {
          "indexed": false,
          "name": "playerAddress",
          "type": "address"
        },
        {
          "indexed": false,
          "name": "playerRound",
          "type": "uint256"
        },
        {
          "indexed": false,
          "name": "playerValue",
          "type": "uint256"
        }
      ],
      "name": "eventCreatePlayer",
      "type": "event"
    },
    {
      "anonymous": false,
      "inputs": [
        {
          "indexed": true,
          "name": "previousOwner",
          "type": "address"
        }
      ],
      "name": "OwnershipRenounced",
      "type": "event"
    },
    {
      "anonymous": false,
      "inputs": [
        {
          "indexed": true,
          "name": "previousOwner",
          "type": "address"
        },
        {
          "indexed": true,
          "name": "newOwner",
          "type": "address"
        }
      ],
      "name": "OwnershipTransferred",
      "type": "event"
    },
    {
      "constant": false,
      "inputs": [
        {
          "name": "clientRound",
          "type": "uint256"
        },
        {
          "name": "clientPlayers",
          "type": "address[]"
        },
        {
          "name": "values",
          "type": "uint256[]"
        }
      ],
      "name": "endRound",
      "outputs": [],
      "payable": false,
      "stateMutability": "nonpayable",
      "type": "function"
    },
    {
      "constant": false,
      "inputs": [],
      "name": "startNewRound",
      "outputs": [],
      "payable": false,
      "stateMutability": "nonpayable",
      "type": "function"
    },
    {
      "constant": false,
      "inputs": [],
      "name": "buy",
      "outputs": [
        {
          "name": "",
          "type": "uint256"
        }
      ],
      "payable": true,
      "stateMutability": "payable",
      "type": "function"
    }
  ],
  "bytecode": "0x6080604052600060035560006004556103846005556000600655662386f26fc100006007556000600855600060095534801561003a57600080fd5b50336000806101000a81548173ffffffffffffffffffffffffffffffffffffffff021916908373ffffffffffffffffffffffffffffffffffffffff1602179055506113618061008a6000396000f3006080604052600436106100cf576000357c0100000000000000000000000000000000000000000000000000000000900463ffffffff1680625b4487146100da5780630d92b19b14610105578063146ca531146101b85780633197cbb6146101e35780636103d70b1461020e5780636db759dd14610225578063715018a6146102505780638da5cb5b14610267578063a6f2ae3a146102be578063bd85948c146102dc578063c7876ea4146102f3578063da490ace1461031e578063e2982c2114610349578063f2fde38b146103a0575b6100d8346103e3565b005b3480156100e657600080fd5b506100ef610572565b6040518082815260200191505060405180910390f35b34801561011157600080fd5b506101b6600480360381019080803590602001909291908035906020019082018035906020019080806020026020016040519081016040528093929190818152602001838360200280828437820191505050505050919291929080359060200190820180359060200190808060200260200160405190810160405280939291908181526020018383602002808284378201915050505050509192919290505050610578565b005b3480156101c457600080fd5b506101cd610c26565b6040518082815260200191505060405180910390f35b3480156101ef57600080fd5b506101f8610c2c565b6040518082815260200191505060405180910390f35b34801561021a57600080fd5b50610223610c32565b005b34801561023157600080fd5b5061023a610d5b565b6040518082815260200191505060405180910390f35b34801561025c57600080fd5b50610265610d61565b005b34801561027357600080fd5b5061027c610e63565b604051808273ffffffffffffffffffffffffffffffffffffffff1673ffffffffffffffffffffffffffffffffffffffff16815260200191505060405180910390f35b6102c6610e88565b6040518082815260200191505060405180910390f35b3480156102e857600080fd5b506102f1610ef2565b005b3480156102ff57600080fd5b50610308611001565b6040518082815260200191505060405180910390f35b34801561032a57600080fd5b50610333611007565b6040518082815260200191505060405180910390f35b34801561035557600080fd5b5061038a600480360381019080803573ffffffffffffffffffffffffffffffffffffffff16906020019092919050505061100d565b6040518082815260200191505060405180910390f35b3480156103ac57600080fd5b506103e1600480360381019080803573ffffffffffffffffffffffffffffffffffffffff169060200190929190505050611025565b005b600080600080600754851415156103f957600080fd5b600454421115151561040a57600080fd5b6104138561108c565b93506104406000809054906101000a900473ffffffffffffffffffffffffffffffffffffffff16856110aa565b6104498561115e565b92506104548361117c565b50600a60003373ffffffffffffffffffffffffffffffffffffffff1673ffffffffffffffffffffffffffffffffffffffff168152602001908152602001600020915060035482600001541415156104bb576000826001018190555060035482600001819055505b6104ce346104c9868661119a565b6111b6565b90506104de82600101548261119a565b82600101819055506104ef816111cf565b507f273b2c6919c543e2043aa484ce5a46c554ac13bedcb07afc317ad9605a520ee43383600001548460010154604051808473ffffffffffffffffffffffffffffffffffffffff1673ffffffffffffffffffffffffffffffffffffffff168152602001838152602001828152602001935050505060405180910390a15050505050565b60025481565b60008060008060008060008060009054906101000a900473ffffffffffffffffffffffffffffffffffffffff1673ffffffffffffffffffffffffffffffffffffffff163373ffffffffffffffffffffffffffffffffffffffff161415156105de57600080fd5b600454421115156105ee57600080fd5b6003548a1415156105fe57600080fd5b600096505b885187101561072b57600354600a60008b8a81518110151561062157fe5b9060200190602002015173ffffffffffffffffffffffffffffffffffffffff1673ffffffffffffffffffffffffffffffffffffffff16815260200190815260200160002060000154141561072057600a60008a8981518110151561068157fe5b9060200190602002015173ffffffffffffffffffffffffffffffffffffffff1673ffffffffffffffffffffffffffffffffffffffff168152602001908152602001600020955087878151811015156106d557fe5b90602001906020020151866001018190555061071f89888151811015156106f857fe5b90602001906020020151898981518110151561071057fe5b906020019060200201516110aa565b5b600187019650610603565b6000871180156107965750600354600a60008b600081518110151561074c57fe5b9060200190602002015173ffffffffffffffffffffffffffffffffffffffff1673ffffffffffffffffffffffffffffffffffffffff16815260200190815260200160002060000154145b1561087d576107b26107ab60085460326111ed565b6064611225565b92506107d68960008151811015156107c657fe5b90602001906020020151846110aa565b8860008151811015156107e557fe5b9060200190602002015185868054905081548110151561080157fe5b9060005260206000200160006101000a81548173ffffffffffffffffffffffffffffffffffffffff021916908373ffffffffffffffffffffffffffffffffffffffff1602179055508284858054905081548110151561085c57fe5b9060005260206000200181905550610876600854846111b6565b6008819055505b6001871180156108e85750600354600a60008b600181518110151561089e57fe5b9060200190602002015173ffffffffffffffffffffffffffffffffffffffff1673ffffffffffffffffffffffffffffffffffffffff16815260200190815260200160002060000154145b156109cf576109046108fd600854601e6111ed565b6064611225565b915061092889600181518110151561091857fe5b90602001906020020151836110aa565b88600181518110151561093757fe5b9060200190602002015185868054905081548110151561095357fe5b9060005260206000200160006101000a81548173ffffffffffffffffffffffffffffffffffffffff021916908373ffffffffffffffffffffffffffffffffffffffff160217905550818485805490508154811015156109ae57fe5b90600052602060002001819055506109c8600854836111b6565b6008819055505b600287118015610a3a5750600354600a60008b60028151811015156109f057fe5b9060200190602002015173ffffffffffffffffffffffffffffffffffffffff1673ffffffffffffffffffffffffffffffffffffffff16815260200190815260200160002060000154145b15610b1757610a56610a4f60085460146111ed565b6064611225565b9050610a7a896002815181101515610a6a57fe5b90602001906020020151826110aa565b886002815181101515610a8957fe5b90602001906020020151858680549050815481101515610aa557fe5b9060005260206000200160006101000a81548173ffffffffffffffffffffffffffffffffffffffff021916908373ffffffffffffffffffffffffffffffffffffffff16021790555080848580549050815481101515610b0057fe5b906000526020600020018190555060006008819055505b7f5490622fafa58a6e0b31b28c1be04a5e5a701eb68f50a096e338e644d86bb12a60035486866040518084815260200180602001806020018381038352858181548152602001915080548015610bc257602002820191906000526020600020905b8160009054906101000a900473ffffffffffffffffffffffffffffffffffffffff1673ffffffffffffffffffffffffffffffffffffffff1681526020019060010190808311610b78575b50508381038252848181548152602001915080548015610c0157602002820191906000526020600020905b815481526020019060010190808311610bed575b50509550505050505060405180910390a1610c1a610ef2565b50505050505050505050565b60035481565b60045481565b600080339150600160008373ffffffffffffffffffffffffffffffffffffffff1673ffffffffffffffffffffffffffffffffffffffff16815260200190815260200160002054905060008114151515610c8a57600080fd5b803073ffffffffffffffffffffffffffffffffffffffff163110151515610cb057600080fd5b610cc5816002546111b690919063ffffffff16565b6002819055506000600160008473ffffffffffffffffffffffffffffffffffffffff1673ffffffffffffffffffffffffffffffffffffffff168152602001908152602001600020819055508173ffffffffffffffffffffffffffffffffffffffff166108fc829081150290604051600060405180830381858888f19350505050158015610d56573d6000803e3d6000fd5b505050565b60065481565b6000809054906101000a900473ffffffffffffffffffffffffffffffffffffffff1673ffffffffffffffffffffffffffffffffffffffff163373ffffffffffffffffffffffffffffffffffffffff16141515610dbc57600080fd5b6000809054906101000a900473ffffffffffffffffffffffffffffffffffffffff1673ffffffffffffffffffffffffffffffffffffffff167ff8df31144d9c2f0f6b59d69b8b98abd5459d07f2742c4df920b25aae33c6482060405160405180910390a260008060006101000a81548173ffffffffffffffffffffffffffffffffffffffff021916908373ffffffffffffffffffffffffffffffffffffffff160217905550565b6000809054906101000a900473ffffffffffffffffffffffffffffffffffffffff1681565b60008060009054906101000a900473ffffffffffffffffffffffffffffffffffffffff1673ffffffffffffffffffffffffffffffffffffffff163373ffffffffffffffffffffffffffffffffffffffff1614151515610ee657600080fd5b610eef346103e3565b90565b6000809054906101000a900473ffffffffffffffffffffffffffffffffffffffff1673ffffffffffffffffffffffffffffffffffffffff163373ffffffffffffffffffffffffffffffffffffffff16141515610f4d57600080fd5b60045442111515610f5d57600080fd5b610f694260055461119a565b600481905550610f7c600354600161119a565b60038190555060006008541115610fa257610f9b60095460085461119a565b6009819055505b60095460088190555060006009819055506008546006819055507fa8643b6863048eb0c1c37773430ad7fef4b12936fb66672ca707a7170ace5a5f600354600454604051808381526020018281526020019250505060405180910390a1565b60075481565b60085481565b60016020528060005260406000206000915090505481565b6000809054906101000a900473ffffffffffffffffffffffffffffffffffffffff1673ffffffffffffffffffffffffffffffffffffffff163373ffffffffffffffffffffffffffffffffffffffff1614151561108057600080fd5b6110898161123b565b50565b60006110a361109c83600a6111ed565b6064611225565b9050919050565b6110fc81600160008573ffffffffffffffffffffffffffffffffffffffff1673ffffffffffffffffffffffffffffffffffffffff1681526020019081526020016000205461119a90919063ffffffff16565b600160008473ffffffffffffffffffffffffffffffffffffffff1673ffffffffffffffffffffffffffffffffffffffff168152602001908152602001600020819055506111548160025461119a90919063ffffffff16565b6002819055505050565b600061117561116e8360146111ed565b6064611225565b9050919050565b600061118a6009548361119a565b6009819055506009549050919050565b600081830190508281101515156111ad57fe5b80905092915050565b60008282111515156111c457fe5b818303905092915050565b60006111dd6006548361119a565b6006819055506006549050919050565b600080831415611200576000905061121f565b818302905081838281151561121157fe5b0414151561121b57fe5b8090505b92915050565b6000818381151561123257fe5b04905092915050565b600073ffffffffffffffffffffffffffffffffffffffff168173ffffffffffffffffffffffffffffffffffffffff161415151561127757600080fd5b8073ffffffffffffffffffffffffffffffffffffffff166000809054906101000a900473ffffffffffffffffffffffffffffffffffffffff1673ffffffffffffffffffffffffffffffffffffffff167f8be0079c531659141344cd1fd0a4f28419497f9722a3daafe3b4186f6b6457e060405160405180910390a3806000806101000a81548173ffffffffffffffffffffffffffffffffffffffff021916908373ffffffffffffffffffffffffffffffffffffffff160217905550505600a165627a7a72305820b085cbcdd56722bc0afa5066b22d66ce988d4ded4874323123a0880964cb06af0029",
  "source": "pragma solidity ^0.4.22;\n\nimport './FishBase.sol';\n\n//@title Base Contract for FishWarChain. Holds all functions related to the game's round.\n//@author Inspius (https://www.inspius.com)\ncontract FishCore is FishBase {\n\t\n\tconstructor() public {\n\t}\n\n\t//@dev end round, give top players the bonus and start the new game, only onwer can.\n\tfunction endRound(uint256 clientRound, address[] clientPlayers, uint256[] values)\n\t\tpublic\n\t\tonlyOwner\n\t{\n\t\trequire(now > endTime);\n\t\trequire(clientRound == round);\n\t\t\n\t\t//@dev update the player result from client into the contract\n\t\tuint256 index = 0;\n        while (index < clientPlayers.length) {\n            if(players[clientPlayers[index]].playerRound == round) {\n\t\t\t\tPlayer storage player = players[clientPlayers[index]];\n\t\t\t\t//@dev update the player value and send reward\n\t\t\t\tplayer.playerValue = values[index];\n\t\t\t\tasyncSend(clientPlayers[index], values[index]);\n\t\t\t}\n            index += 1;\n        }\n\t\taddress[] topPlayers;\n\t\tuint256[] topPlayerBonusValues;\n\t\t//@dev give the top players reward from leader bonus\n\t\tif(index > 0 && players[clientPlayers[0]].playerRound == round) {\n\t\t\t//@dev cut the top 1 player reward from current leader bonus price\n\t\t\tuint256 bonusForPlayerTop1 = SafeMath.div(SafeMath.mul(currentLeaderBonusPrice, 50), 100);\n\t\t\tasyncSend(clientPlayers[0], bonusForPlayerTop1);\n\t\t\ttopPlayers[topPlayers.length] = clientPlayers[0];\n\t\t\ttopPlayerBonusValues[topPlayerBonusValues.length] = bonusForPlayerTop1;\n\t\t\tcurrentLeaderBonusPrice = SafeMath.sub(currentLeaderBonusPrice, bonusForPlayerTop1);\n\t\t}\n\t\tif(index > 1 && players[clientPlayers[1]].playerRound == round) {\n\t\t\t//@dev cut the top 2 player reward from current leader bonus price\n\t\t\tuint256 bonusForPlayerTop2 = SafeMath.div(SafeMath.mul(currentLeaderBonusPrice, 30), 100);\n\t\t\tasyncSend(clientPlayers[1], bonusForPlayerTop2);\n\t\t\ttopPlayers[topPlayers.length] = clientPlayers[1];\n\t\t\ttopPlayerBonusValues[topPlayerBonusValues.length] = bonusForPlayerTop2;\n\t\t\tcurrentLeaderBonusPrice = SafeMath.sub(currentLeaderBonusPrice, bonusForPlayerTop2);\n\t\t}\n\t\tif(index > 2 && players[clientPlayers[2]].playerRound == round) {\n\t\t\t//@dev cut the top 3 player reward from current leader bonus price\n\t\t\tuint256 bonusForPlayerTop3 = SafeMath.div(SafeMath.mul(currentLeaderBonusPrice, 20), 100);\n\t\t\tasyncSend(clientPlayers[2], bonusForPlayerTop3);\n\t\t\ttopPlayers[topPlayers.length] = clientPlayers[2];\n\t\t\ttopPlayerBonusValues[topPlayerBonusValues.length] = bonusForPlayerTop3;\n\t\t\tcurrentLeaderBonusPrice = 0;\n\t\t}\n\t\t\n\t\t//emit started end round event\n\t\temit eventEndRound(round, topPlayers, topPlayerBonusValues);\n\n\t\t//@dev go for new round\n\t\tstartNewRound();\n\t\t\n\t}\n\n\t//@dev start a new round, only owner can.\n\tfunction startNewRound()\n\t\tpublic\n\t\tonlyOwner\n\t{\n\t\trequire(now > endTime);\n\t\t\n\t\t//@dev update end time for this new round\n\t\tendTime = SafeMath.add(now, roundTime);\n\n\t\t//@dev update round to new round\n        round = SafeMath.add(round, 1);\n\t\t\n\t\t//@dev move the current leader bonus to next round bonus, in case number of players < 3\n\t\tif(currentLeaderBonusPrice > 0) {\n\t\t\tnextLeaderBonusPrice = SafeMath.add(nextLeaderBonusPrice, currentLeaderBonusPrice);\n\t\t}\n\n\t\t//@dev use next leader bonus price as current leader bonus price\n\t\tcurrentLeaderBonusPrice = nextLeaderBonusPrice;\n\t\t\n\t\t//@dev reset next leader bonus price to zero\n\t\tnextLeaderBonusPrice = 0;\n\n\t\t//@dev use leader bonus price as start total round price\n\t\ttotalRoundPrice = currentLeaderBonusPrice;\n\n\t\t//emit started new round event\n\t\temit eventStartNewRound(round, endTime);\n\t}\n\n\t//@dev buy a fish to join the game\n\tfunction buy()\n        public\n        payable\n        returns(uint256)\n    {\n\t\t//@dev owner can't play the game.\n\t\trequire(msg.sender != owner);\n\n        createPlayer(msg.value);\n    }\n\t\n\t//@dev create player to join this round.\n    function createPlayer(uint256 incomingEthereum)\n        internal\n    {\n\t\trequire(incomingEthereum == basePrice);\n\t\trequire(now <= endTime);\n\n\t\t//@dev cut the dev fee\n\t\tuint256 devFee = getDevFee(incomingEthereum);\n\t\tasyncSend(owner, devFee);\n\n\t\t//@dev cut the leader bonus fee to next round\n\t\tuint256 leaderBonusFee = getLeaderBonusFee(incomingEthereum);\t\t\n\t\taddNextLeaderBonus(leaderBonusFee);\n\t\t\n\t\tPlayer storage player = players[msg.sender];\n\t\t\n\t\t//@dev reset player value and round for this round\n\t\tif(player.playerRound != round) {\n\t\t\tplayer.playerValue = 0;\n\t\t\tplayer.playerRound = round;\n\t\t}\n\n\t\tuint256 valueAfterFee = SafeMath.sub(msg.value, SafeMath.add(devFee, leaderBonusFee));\n\t\t\n\t\t//@dev add the player value\n\t\tplayer.playerValue = SafeMath.add(player.playerValue, valueAfterFee);\n\t\t\n\t\t//@dev add the value to this round\n\t\taddTotalRoundPrice( valueAfterFee );\n\t\t\n\t\t//@dev emit created player event\n\t\temit eventCreatePlayer(msg.sender, player.playerRound, player.playerValue);\n    }\n\t\n\t//@dev fallback function to handle ethereum that was send straight to the contract\n\tfunction()\n        payable\n        public\n    {\n        createPlayer(msg.value);\n    }\n}\n",
  "sourcePath": "/var/www/html/FishWarChainContract/contracts/FishCore.sol",
  "compiler": {
    "name": "solc",
    "version": "0.4.23+commit.124ca40d.Emscripten.clang"
  },
  "schemaVersion": "2.0.0",
  "updatedAt": "2018-07-09T03:47:40.827Z"
}