{
  "contractName": "FishCore",
  "abi": [
    {
      "constant": true,
      "inputs": [],
      "name": "totalPayments",
      "outputs": [
        {
          "name": "",
          "type": "uint256"
        }
      ],
      "payable": false,
      "stateMutability": "view",
      "type": "function"
    },
    {
      "constant": true,
      "inputs": [],
      "name": "round",
      "outputs": [
        {
          "name": "",
          "type": "uint256"
        }
      ],
      "payable": false,
      "stateMutability": "view",
      "type": "function"
    },
    {
      "constant": true,
      "inputs": [],
      "name": "endTime",
      "outputs": [
        {
          "name": "",
          "type": "uint256"
        }
      ],
      "payable": false,
      "stateMutability": "view",
      "type": "function"
    },
    {
      "constant": false,
      "inputs": [],
      "name": "withdrawPayments",
      "outputs": [],
      "payable": false,
      "stateMutability": "nonpayable",
      "type": "function"
    },
    {
      "constant": true,
      "inputs": [],
      "name": "totalRoundPrice",
      "outputs": [
        {
          "name": "",
          "type": "uint256"
        }
      ],
      "payable": false,
      "stateMutability": "view",
      "type": "function"
    },
    {
      "constant": false,
      "inputs": [],
      "name": "renounceOwnership",
      "outputs": [],
      "payable": false,
      "stateMutability": "nonpayable",
      "type": "function"
    },
    {
      "constant": true,
      "inputs": [],
      "name": "owner",
      "outputs": [
        {
          "name": "",
          "type": "address"
        }
      ],
      "payable": false,
      "stateMutability": "view",
      "type": "function"
    },
    {
      "constant": true,
      "inputs": [],
      "name": "basePrice",
      "outputs": [
        {
          "name": "",
          "type": "uint256"
        }
      ],
      "payable": false,
      "stateMutability": "view",
      "type": "function"
    },
    {
      "constant": true,
      "inputs": [],
      "name": "currentLeaderBonusPrice",
      "outputs": [
        {
          "name": "",
          "type": "uint256"
        }
      ],
      "payable": false,
      "stateMutability": "view",
      "type": "function"
    },
    {
      "constant": true,
      "inputs": [
        {
          "name": "",
          "type": "address"
        }
      ],
      "name": "payments",
      "outputs": [
        {
          "name": "",
          "type": "uint256"
        }
      ],
      "payable": false,
      "stateMutability": "view",
      "type": "function"
    },
    {
      "constant": false,
      "inputs": [
        {
          "name": "_newOwner",
          "type": "address"
        }
      ],
      "name": "transferOwnership",
      "outputs": [],
      "payable": false,
      "stateMutability": "nonpayable",
      "type": "function"
    },
    {
      "inputs": [],
      "payable": false,
      "stateMutability": "nonpayable",
      "type": "constructor"
    },
    {
      "anonymous": false,
      "inputs": [
        {
          "indexed": false,
          "name": "nextRound",
          "type": "uint256"
        },
        {
          "indexed": false,
          "name": "nextEndTime",
          "type": "uint256"
        }
      ],
      "name": "eventStartNewRound",
      "type": "event"
    },
    {
      "anonymous": false,
      "inputs": [
        {
          "indexed": false,
          "name": "playerAddress",
          "type": "address"
        }
      ],
      "name": "eventCreatePlayer",
      "type": "event"
    },
    {
      "anonymous": false,
      "inputs": [
        {
          "indexed": true,
          "name": "previousOwner",
          "type": "address"
        }
      ],
      "name": "OwnershipRenounced",
      "type": "event"
    },
    {
      "anonymous": false,
      "inputs": [
        {
          "indexed": true,
          "name": "previousOwner",
          "type": "address"
        },
        {
          "indexed": true,
          "name": "newOwner",
          "type": "address"
        }
      ],
      "name": "OwnershipTransferred",
      "type": "event"
    },
    {
      "constant": false,
      "inputs": [],
      "name": "startNewRound",
      "outputs": [],
      "payable": false,
      "stateMutability": "nonpayable",
      "type": "function"
    },
    {
      "constant": false,
      "inputs": [],
      "name": "endRound",
      "outputs": [],
      "payable": false,
      "stateMutability": "nonpayable",
      "type": "function"
    },
    {
      "constant": false,
      "inputs": [],
      "name": "createPlayer",
      "outputs": [],
      "payable": true,
      "stateMutability": "payable",
      "type": "function"
    }
  ],
  "bytecode": "0x608060405260006003556103846005556000600655662386f26fc100006007556000600855600060095534801561003557600080fd5b50336000806101000a81548173ffffffffffffffffffffffffffffffffffffffff021916908373ffffffffffffffffffffffffffffffffffffffff160217905550610bc8806100856000396000f3006080604052600436106100cf576000357c0100000000000000000000000000000000000000000000000000000000900463ffffffff1680625b4487146100d4578063146ca531146100ff5780633197cbb61461012a5780633fa9fcf8146101555780636103d70b1461015f5780636db759dd14610176578063715018a6146101a1578063749aa2d9146101b85780638da5cb5b146101cf578063bd85948c14610226578063c7876ea41461023d578063da490ace14610268578063e2982c2114610293578063f2fde38b146102ea575b600080fd5b3480156100e057600080fd5b506100e961032d565b6040518082815260200191505060405180910390f35b34801561010b57600080fd5b50610114610333565b6040518082815260200191505060405180910390f35b34801561013657600080fd5b5061013f610339565b6040518082815260200191505060405180910390f35b61015d61033f565b005b34801561016b57600080fd5b506101746104ae565b005b34801561018257600080fd5b5061018b6105d7565b6040518082815260200191505060405180910390f35b3480156101ad57600080fd5b506101b66105dd565b005b3480156101c457600080fd5b506101cd6106df565b005b3480156101db57600080fd5b506101e4610754565b604051808273ffffffffffffffffffffffffffffffffffffffff1673ffffffffffffffffffffffffffffffffffffffff16815260200191505060405180910390f35b34801561023257600080fd5b5061023b610779565b005b34801561024957600080fd5b50610252610868565b6040518082815260200191505060405180910390f35b34801561027457600080fd5b5061027d61086e565b6040518082815260200191505060405180910390f35b34801561029f57600080fd5b506102d4600480360381019080803573ffffffffffffffffffffffffffffffffffffffff169060200190929190505050610874565b6040518082815260200191505060405180910390f35b3480156102f657600080fd5b5061032b600480360381019080803573ffffffffffffffffffffffffffffffffffffffff16906020019092919050505061088c565b005b60025481565b60035481565b60045481565b6000806000806007543414151561035557600080fd5b600454421115151561036657600080fd5b61036f346108f3565b935061039c6000809054906101000a900473ffffffffffffffffffffffffffffffffffffffff1685610911565b6103a5346109c5565b92506103b0836109e3565b50600a60003373ffffffffffffffffffffffffffffffffffffffff1673ffffffffffffffffffffffffffffffffffffffff1681526020019081526020016000209150610405346104008686610a01565b610a1d565b9050600354826000015414151561042157600082600101819055505b61042f826001015482610a01565b82600101819055506104448260010154610a36565b507f3529aa8bea82a5fd89b930b78bdc9dfd4705cc7edb0d96b5f8065214b03328e433604051808273ffffffffffffffffffffffffffffffffffffffff1673ffffffffffffffffffffffffffffffffffffffff16815260200191505060405180910390a150505050565b600080339150600160008373ffffffffffffffffffffffffffffffffffffffff1673ffffffffffffffffffffffffffffffffffffffff1681526020019081526020016000205490506000811415151561050657600080fd5b803073ffffffffffffffffffffffffffffffffffffffff16311015151561052c57600080fd5b61054181600254610a1d90919063ffffffff16565b6002819055506000600160008473ffffffffffffffffffffffffffffffffffffffff1673ffffffffffffffffffffffffffffffffffffffff168152602001908152602001600020819055508173ffffffffffffffffffffffffffffffffffffffff166108fc829081150290604051600060405180830381858888f193505050501580156105d2573d6000803e3d6000fd5b505050565b60065481565b6000809054906101000a900473ffffffffffffffffffffffffffffffffffffffff1673ffffffffffffffffffffffffffffffffffffffff163373ffffffffffffffffffffffffffffffffffffffff1614151561063857600080fd5b6000809054906101000a900473ffffffffffffffffffffffffffffffffffffffff1673ffffffffffffffffffffffffffffffffffffffff167ff8df31144d9c2f0f6b59d69b8b98abd5459d07f2742c4df920b25aae33c6482060405160405180910390a260008060006101000a81548173ffffffffffffffffffffffffffffffffffffffff021916908373ffffffffffffffffffffffffffffffffffffffff160217905550565b6000809054906101000a900473ffffffffffffffffffffffffffffffffffffffff1673ffffffffffffffffffffffffffffffffffffffff163373ffffffffffffffffffffffffffffffffffffffff1614151561073a57600080fd5b6004544211151561074a57600080fd5b610752610779565b565b6000809054906101000a900473ffffffffffffffffffffffffffffffffffffffff1681565b6000809054906101000a900473ffffffffffffffffffffffffffffffffffffffff1673ffffffffffffffffffffffffffffffffffffffff163373ffffffffffffffffffffffffffffffffffffffff161415156107d457600080fd5b600454421115156107e457600080fd5b6107f042600554610a01565b6004819055506108036003546001610a01565b60038190555060095460088190555060006009819055506008546006819055507fa8643b6863048eb0c1c37773430ad7fef4b12936fb66672ca707a7170ace5a5f600354600454604051808381526020018281526020019250505060405180910390a1565b60075481565b60085481565b60016020528060005260406000206000915090505481565b6000809054906101000a900473ffffffffffffffffffffffffffffffffffffffff1673ffffffffffffffffffffffffffffffffffffffff163373ffffffffffffffffffffffffffffffffffffffff161415156108e757600080fd5b6108f081610a54565b50565b600061090a61090383600a610b4e565b6064610b86565b9050919050565b61096381600160008573ffffffffffffffffffffffffffffffffffffffff1673ffffffffffffffffffffffffffffffffffffffff16815260200190815260200160002054610a0190919063ffffffff16565b600160008473ffffffffffffffffffffffffffffffffffffffff1673ffffffffffffffffffffffffffffffffffffffff168152602001908152602001600020819055506109bb81600254610a0190919063ffffffff16565b6002819055505050565b60006109dc6109d5836014610b4e565b6064610b86565b9050919050565b60006109f160095483610a01565b6009819055506009549050919050565b60008183019050828110151515610a1457fe5b80905092915050565b6000828211151515610a2b57fe5b818303905092915050565b6000610a4460065483610a01565b6006819055506006549050919050565b600073ffffffffffffffffffffffffffffffffffffffff168173ffffffffffffffffffffffffffffffffffffffff1614151515610a9057600080fd5b8073ffffffffffffffffffffffffffffffffffffffff166000809054906101000a900473ffffffffffffffffffffffffffffffffffffffff1673ffffffffffffffffffffffffffffffffffffffff167f8be0079c531659141344cd1fd0a4f28419497f9722a3daafe3b4186f6b6457e060405160405180910390a3806000806101000a81548173ffffffffffffffffffffffffffffffffffffffff021916908373ffffffffffffffffffffffffffffffffffffffff16021790555050565b600080831415610b615760009050610b80565b8183029050818382811515610b7257fe5b04141515610b7c57fe5b8090505b92915050565b60008183811515610b9357fe5b049050929150505600a165627a7a72305820d6d79cc830c9335647ea0faf42d2d339b6c4aa6638d0f96f3553cb24bba55cd50029",
  "source": "pragma solidity ^0.4.22;\n\nimport './FishBase.sol';\n\n//@title Base Contract for FishWarChain. Holds all functions related to the game's round.\n//@author Inspius (https://www.inspius.com)\ncontract FishCore is FishBase {\n\t\n\tconstructor() public {\n\t}\n\n\t//@dev start a new round, only onwer can.\n\tfunction startNewRound()\n\t\tpublic\n\t\tonlyOwner\n\t{\n\t\trequire(now > endTime);\n\t\t\n\t\t//@dev update end time for this new round\n\t\tendTime = SafeMath.add(now, roundTime);\n\n\t\t//@dev update round to new round\n        round = SafeMath.add(round, 1);\n\t\t\n\t\t//@dev use next leader bonus price as current leader bonus price\n\t\tcurrentLeaderBonusPrice = nextLeaderBonusPrice;\n\t\t\n\t\t//@dev reset next leader bonus price to zero\n\t\tnextLeaderBonusPrice = 0;\n\n\t\t//@dev use leader bonus price as start total round price\n\t\ttotalRoundPrice = currentLeaderBonusPrice;\n\n\t\t//emit started new round event\n\t\temit eventStartNewRound(round, endTime);\n\t}\n\n\t//@dev end current round and start the new one, only onwer can.\n\tfunction endRound()\n\t\tpublic\n\t\tonlyOwner\n\t{\n\t\trequire(now > endTime);\n\t\t\n\t\tstartNewRound();\n\t}\n\t\n\t//@dev create player to join this round.\n    //@return player id in the contract.\n    function createPlayer()\n        public\n        payable\n    {\n\t\trequire(msg.value == basePrice);\n\t\trequire(now <= endTime);\n\n\t\t//@dev cut the dev fee\n\t\tuint256 devFee = getDevFee(msg.value);\n\t\tasyncSend(owner, devFee);\n\n\t\t//@dev cut the leader bonus fee to next round\n\t\tuint256 leaderBonusFee = getLeaderBonusFee(msg.value);\t\t\n\t\taddNextLeaderBonus(leaderBonusFee);\n\t\t\n\t\tPlayer storage player = players[msg.sender];\n\t\t\n\t\tuint256 valueAfterFee = SafeMath.sub(msg.value, SafeMath.add(devFee, leaderBonusFee));\n\t\t\n\t\t//@dev reset player value for this round\n\t\tif(player.playerRound != round) {\n\t\t\tplayer.playerValue = 0;\n\t\t}\n\t\t\n\t\t//@dev add the player value\n\t\tplayer.playerValue = SafeMath.add(player.playerValue, valueAfterFee);\n\t\t\n\t\t//@dev add the value to this round\n\t\taddTotalRoundPrice(player.playerValue);\n\t\t\n\t\t//@dev emit created player event\n\t\temit eventCreatePlayer(msg.sender);\n    }\n}\n",
  "sourcePath": "/Applications/MAMP/htdocs/FishWarChainContract/contracts/FishCore.sol",
  "compiler": {
    "name": "solc",
    "version": "0.4.24+commit.e67f0147.Emscripten.clang"
  },
  "schemaVersion": "2.0.1",
  "updatedAt": "2018-06-22T06:57:22.261Z"
}