{
  "contractName": "FishCore",
  "abi": [
    {
      "constant": true,
      "inputs": [],
      "name": "totalPayments",
      "outputs": [
        {
          "name": "",
          "type": "uint256"
        }
      ],
      "payable": false,
      "stateMutability": "view",
      "type": "function"
    },
    {
      "constant": true,
      "inputs": [],
      "name": "endTime",
      "outputs": [
        {
          "name": "",
          "type": "uint256"
        }
      ],
      "payable": false,
      "stateMutability": "view",
      "type": "function"
    },
    {
      "constant": false,
      "inputs": [],
      "name": "withdrawPayments",
      "outputs": [],
      "payable": false,
      "stateMutability": "nonpayable",
      "type": "function"
    },
    {
      "constant": false,
      "inputs": [],
      "name": "renounceOwnership",
      "outputs": [],
      "payable": false,
      "stateMutability": "nonpayable",
      "type": "function"
    },
    {
      "constant": true,
      "inputs": [],
      "name": "owner",
      "outputs": [
        {
          "name": "",
          "type": "address"
        }
      ],
      "payable": false,
      "stateMutability": "view",
      "type": "function"
    },
    {
      "constant": true,
      "inputs": [
        {
          "name": "",
          "type": "address"
        }
      ],
      "name": "payments",
      "outputs": [
        {
          "name": "",
          "type": "uint256"
        }
      ],
      "payable": false,
      "stateMutability": "view",
      "type": "function"
    },
    {
      "constant": true,
      "inputs": [],
      "name": "roundTime",
      "outputs": [
        {
          "name": "",
          "type": "uint256"
        }
      ],
      "payable": false,
      "stateMutability": "view",
      "type": "function"
    },
    {
      "constant": false,
      "inputs": [
        {
          "name": "_newOwner",
          "type": "address"
        }
      ],
      "name": "transferOwnership",
      "outputs": [],
      "payable": false,
      "stateMutability": "nonpayable",
      "type": "function"
    },
    {
      "inputs": [],
      "payable": false,
      "stateMutability": "nonpayable",
      "type": "constructor"
    },
    {
      "anonymous": false,
      "inputs": [
        {
          "indexed": false,
          "name": "nextRound",
          "type": "uint256"
        },
        {
          "indexed": false,
          "name": "nextEndTime",
          "type": "uint256"
        },
        {
          "indexed": false,
          "name": "leaderBonusPrice",
          "type": "uint256"
        }
      ],
      "name": "eventEndRound",
      "type": "event"
    },
    {
      "anonymous": false,
      "inputs": [
        {
          "indexed": true,
          "name": "previousOwner",
          "type": "address"
        }
      ],
      "name": "OwnershipRenounced",
      "type": "event"
    },
    {
      "anonymous": false,
      "inputs": [
        {
          "indexed": true,
          "name": "previousOwner",
          "type": "address"
        },
        {
          "indexed": true,
          "name": "newOwner",
          "type": "address"
        }
      ],
      "name": "OwnershipTransferred",
      "type": "event"
    },
    {
      "constant": false,
      "inputs": [],
      "name": "createPlayer",
      "outputs": [],
      "payable": true,
      "stateMutability": "payable",
      "type": "function"
    }
  ],
  "bytecode": "0x608060405260006003556103846005556000600655662386f26fc10000600755600060085534801561003057600080fd5b50336000806101000a81548173ffffffffffffffffffffffffffffffffffffffff021916908373ffffffffffffffffffffffffffffffffffffffff1602179055506108f8806100806000396000f300608060405260043610610098576000357c0100000000000000000000000000000000000000000000000000000000900463ffffffff1680625b44871461009d5780633197cbb6146100c85780633fa9fcf8146100f35780636103d70b146100fd578063715018a6146101145780638da5cb5b1461012b578063e2982c2114610182578063ee5f8c8f146101d9578063f2fde38b14610204575b600080fd5b3480156100a957600080fd5b506100b2610247565b6040518082815260200191505060405180910390f35b3480156100d457600080fd5b506100dd61024d565b6040518082815260200191505060405180910390f35b6100fb610253565b005b34801561010957600080fd5b5061011261034e565b005b34801561012057600080fd5b50610129610477565b005b34801561013757600080fd5b50610140610579565b604051808273ffffffffffffffffffffffffffffffffffffffff1673ffffffffffffffffffffffffffffffffffffffff16815260200191505060405180910390f35b34801561018e57600080fd5b506101c3600480360381019080803573ffffffffffffffffffffffffffffffffffffffff16906020019092919050505061059e565b6040518082815260200191505060405180910390f35b3480156101e557600080fd5b506101ee6105b6565b6040518082815260200191505060405180910390f35b34801561021057600080fd5b50610245600480360381019080803573ffffffffffffffffffffffffffffffffffffffff1690602001909291905050506105bc565b005b60025481565b60045481565b6000806000806007543414151561026957600080fd5b61027234610623565b935061029f6000809054906101000a900473ffffffffffffffffffffffffffffffffffffffff1685610641565b6102a8346106f5565b92506102b383610713565b50600960003373ffffffffffffffffffffffffffffffffffffffff1673ffffffffffffffffffffffffffffffffffffffff1681526020019081526020016000209150610308346103038686610731565b61074d565b9050600354826000015414151561032457600082600101819055505b610332826001015482610731565b82600101819055506103478260010154610766565b5050505050565b600080339150600160008373ffffffffffffffffffffffffffffffffffffffff1673ffffffffffffffffffffffffffffffffffffffff168152602001908152602001600020549050600081141515156103a657600080fd5b803073ffffffffffffffffffffffffffffffffffffffff1631101515156103cc57600080fd5b6103e18160025461074d90919063ffffffff16565b6002819055506000600160008473ffffffffffffffffffffffffffffffffffffffff1673ffffffffffffffffffffffffffffffffffffffff168152602001908152602001600020819055508173ffffffffffffffffffffffffffffffffffffffff166108fc829081150290604051600060405180830381858888f19350505050158015610472573d6000803e3d6000fd5b505050565b6000809054906101000a900473ffffffffffffffffffffffffffffffffffffffff1673ffffffffffffffffffffffffffffffffffffffff163373ffffffffffffffffffffffffffffffffffffffff161415156104d257600080fd5b6000809054906101000a900473ffffffffffffffffffffffffffffffffffffffff1673ffffffffffffffffffffffffffffffffffffffff167ff8df31144d9c2f0f6b59d69b8b98abd5459d07f2742c4df920b25aae33c6482060405160405180910390a260008060006101000a81548173ffffffffffffffffffffffffffffffffffffffff021916908373ffffffffffffffffffffffffffffffffffffffff160217905550565b6000809054906101000a900473ffffffffffffffffffffffffffffffffffffffff1681565b60016020528060005260406000206000915090505481565b60055481565b6000809054906101000a900473ffffffffffffffffffffffffffffffffffffffff1673ffffffffffffffffffffffffffffffffffffffff163373ffffffffffffffffffffffffffffffffffffffff1614151561061757600080fd5b61062081610784565b50565b600061063a61063383600a61087e565b60646108b6565b9050919050565b61069381600160008573ffffffffffffffffffffffffffffffffffffffff1673ffffffffffffffffffffffffffffffffffffffff1681526020019081526020016000205461073190919063ffffffff16565b600160008473ffffffffffffffffffffffffffffffffffffffff1673ffffffffffffffffffffffffffffffffffffffff168152602001908152602001600020819055506106eb8160025461073190919063ffffffff16565b6002819055505050565b600061070c61070583601461087e565b60646108b6565b9050919050565b600061072160085483610731565b6008819055506008549050919050565b6000818301905082811015151561074457fe5b80905092915050565b600082821115151561075b57fe5b818303905092915050565b600061077460065483610731565b6006819055506006549050919050565b600073ffffffffffffffffffffffffffffffffffffffff168173ffffffffffffffffffffffffffffffffffffffff16141515156107c057600080fd5b8073ffffffffffffffffffffffffffffffffffffffff166000809054906101000a900473ffffffffffffffffffffffffffffffffffffffff1673ffffffffffffffffffffffffffffffffffffffff167f8be0079c531659141344cd1fd0a4f28419497f9722a3daafe3b4186f6b6457e060405160405180910390a3806000806101000a81548173ffffffffffffffffffffffffffffffffffffffff021916908373ffffffffffffffffffffffffffffffffffffffff16021790555050565b60008083141561089157600090506108b0565b81830290508183828115156108a257fe5b041415156108ac57fe5b8090505b92915050565b600081838115156108c357fe5b049050929150505600a165627a7a72305820d6117bf4be77c14c6a99276cd3bc6f2122daaf72d2ee09aec1e0615aa488ff4d0029",
  "source": "pragma solidity ^0.4.22;\n\nimport './FishBase.sol';\n\n//@title Base Contract for FishWarChain. Holds all functions related to the game's round.\n//@author Inspius (https://www.inspius.com)\ncontract FishCore is FishBase {\n\t\n\tconstructor() public {\n\t}\n\t\n\t//@dev create player to join this round.\n    //@return player id in the contract.\n    function createPlayer()\n        public\n        payable\n    {\n\t\trequire(msg.value == basePrice);\n\t\t\n\t\t//@dev cut the dev fee\n\t\tuint256 devFee = getDevFee(msg.value);\n\t\tasyncSend(owner, devFee);\n\n\t\t//@dev cut the leader bonus fee to next round\n\t\tuint256 leaderBonusFee = getLeaderBonusFee(msg.value);\t\t\n\t\taddLeaderBonus(leaderBonusFee);\n\t\t\n\t\tPlayer storage player = players[msg.sender];\n\t\t\n\t\tuint256 valueAfterFee = SafeMath.sub(msg.value, SafeMath.add(devFee, leaderBonusFee));\n\t\t\n\t\t//@dev reset player value for this round\n\t\tif(player.playerRound != round) {\n\t\t\tplayer.playerValue = 0;\n\t\t}\n\t\t\n\t\t//@dev add the player value\n\t\tplayer.playerValue = SafeMath.add(player.playerValue, valueAfterFee);\n\t\t\n\t\taddTotalRoundPrice(player.playerValue);\n    }\n}\n",
  "sourcePath": "/Applications/MAMP/htdocs/FishWarChainContract/contracts/FishCore.sol",
  "compiler": {
    "name": "solc",
    "version": "0.4.24+commit.e67f0147.Emscripten.clang"
  },
  "schemaVersion": "2.0.1",
  "updatedAt": "2018-06-22T06:22:57.342Z"
}