{
  "contractName": "FishBase",
  "abi": [
    {
      "constant": true,
      "inputs": [],
      "name": "totalPayments",
      "outputs": [
        {
          "name": "",
          "type": "uint256"
        }
      ],
      "payable": false,
      "stateMutability": "view",
      "type": "function"
    },
    {
      "constant": true,
      "inputs": [],
      "name": "endTime",
      "outputs": [
        {
          "name": "",
          "type": "uint256"
        }
      ],
      "payable": false,
      "stateMutability": "view",
      "type": "function"
    },
    {
      "constant": false,
      "inputs": [],
      "name": "withdrawPayments",
      "outputs": [],
      "payable": false,
      "stateMutability": "nonpayable",
      "type": "function"
    },
    {
      "constant": false,
      "inputs": [],
      "name": "renounceOwnership",
      "outputs": [],
      "payable": false,
      "stateMutability": "nonpayable",
      "type": "function"
    },
    {
      "constant": true,
      "inputs": [],
      "name": "owner",
      "outputs": [
        {
          "name": "",
          "type": "address"
        }
      ],
      "payable": false,
      "stateMutability": "view",
      "type": "function"
    },
    {
      "constant": true,
      "inputs": [
        {
          "name": "",
          "type": "address"
        }
      ],
      "name": "payments",
      "outputs": [
        {
          "name": "",
          "type": "uint256"
        }
      ],
      "payable": false,
      "stateMutability": "view",
      "type": "function"
    },
    {
      "constant": true,
      "inputs": [],
      "name": "roundTime",
      "outputs": [
        {
          "name": "",
          "type": "uint256"
        }
      ],
      "payable": false,
      "stateMutability": "view",
      "type": "function"
    },
    {
      "constant": false,
      "inputs": [
        {
          "name": "_newOwner",
          "type": "address"
        }
      ],
      "name": "transferOwnership",
      "outputs": [],
      "payable": false,
      "stateMutability": "nonpayable",
      "type": "function"
    },
    {
      "inputs": [],
      "payable": false,
      "stateMutability": "nonpayable",
      "type": "constructor"
    },
    {
      "anonymous": false,
      "inputs": [
        {
          "indexed": false,
          "name": "nextRound",
          "type": "uint256"
        },
        {
          "indexed": false,
          "name": "nextEndTime",
          "type": "uint256"
        },
        {
          "indexed": false,
          "name": "leaderBonusPrice",
          "type": "uint256"
        }
      ],
      "name": "eventEndRound",
      "type": "event"
    },
    {
      "anonymous": false,
      "inputs": [
        {
          "indexed": true,
          "name": "previousOwner",
          "type": "address"
        }
      ],
      "name": "OwnershipRenounced",
      "type": "event"
    },
    {
      "anonymous": false,
      "inputs": [
        {
          "indexed": true,
          "name": "previousOwner",
          "type": "address"
        },
        {
          "indexed": true,
          "name": "newOwner",
          "type": "address"
        }
      ],
      "name": "OwnershipTransferred",
      "type": "event"
    }
  ],
  "bytecode": "0x608060405260006003556103846005556000600655662386f26fc10000600755600060085534801561003057600080fd5b50336000806101000a81548173ffffffffffffffffffffffffffffffffffffffff021916908373ffffffffffffffffffffffffffffffffffffffff160217905550610652806100806000396000f30060806040526004361061008d576000357c0100000000000000000000000000000000000000000000000000000000900463ffffffff1680625b4487146100925780633197cbb6146100bd5780636103d70b146100e8578063715018a6146100ff5780638da5cb5b14610116578063e2982c211461016d578063ee5f8c8f146101c4578063f2fde38b146101ef575b600080fd5b34801561009e57600080fd5b506100a7610232565b6040518082815260200191505060405180910390f35b3480156100c957600080fd5b506100d2610238565b6040518082815260200191505060405180910390f35b3480156100f457600080fd5b506100fd61023e565b005b34801561010b57600080fd5b50610114610367565b005b34801561012257600080fd5b5061012b610469565b604051808273ffffffffffffffffffffffffffffffffffffffff1673ffffffffffffffffffffffffffffffffffffffff16815260200191505060405180910390f35b34801561017957600080fd5b506101ae600480360381019080803573ffffffffffffffffffffffffffffffffffffffff16906020019092919050505061048e565b6040518082815260200191505060405180910390f35b3480156101d057600080fd5b506101d96104a6565b6040518082815260200191505060405180910390f35b3480156101fb57600080fd5b50610230600480360381019080803573ffffffffffffffffffffffffffffffffffffffff1690602001909291905050506104ac565b005b60025481565b60045481565b600080339150600160008373ffffffffffffffffffffffffffffffffffffffff1673ffffffffffffffffffffffffffffffffffffffff1681526020019081526020016000205490506000811415151561029657600080fd5b803073ffffffffffffffffffffffffffffffffffffffff1631101515156102bc57600080fd5b6102d18160025461051390919063ffffffff16565b6002819055506000600160008473ffffffffffffffffffffffffffffffffffffffff1673ffffffffffffffffffffffffffffffffffffffff168152602001908152602001600020819055508173ffffffffffffffffffffffffffffffffffffffff166108fc829081150290604051600060405180830381858888f19350505050158015610362573d6000803e3d6000fd5b505050565b6000809054906101000a900473ffffffffffffffffffffffffffffffffffffffff1673ffffffffffffffffffffffffffffffffffffffff163373ffffffffffffffffffffffffffffffffffffffff161415156103c257600080fd5b6000809054906101000a900473ffffffffffffffffffffffffffffffffffffffff1673ffffffffffffffffffffffffffffffffffffffff167ff8df31144d9c2f0f6b59d69b8b98abd5459d07f2742c4df920b25aae33c6482060405160405180910390a260008060006101000a81548173ffffffffffffffffffffffffffffffffffffffff021916908373ffffffffffffffffffffffffffffffffffffffff160217905550565b6000809054906101000a900473ffffffffffffffffffffffffffffffffffffffff1681565b60016020528060005260406000206000915090505481565b60055481565b6000809054906101000a900473ffffffffffffffffffffffffffffffffffffffff1673ffffffffffffffffffffffffffffffffffffffff163373ffffffffffffffffffffffffffffffffffffffff1614151561050757600080fd5b6105108161052c565b50565b600082821115151561052157fe5b818303905092915050565b600073ffffffffffffffffffffffffffffffffffffffff168173ffffffffffffffffffffffffffffffffffffffff161415151561056857600080fd5b8073ffffffffffffffffffffffffffffffffffffffff166000809054906101000a900473ffffffffffffffffffffffffffffffffffffffff1673ffffffffffffffffffffffffffffffffffffffff167f8be0079c531659141344cd1fd0a4f28419497f9722a3daafe3b4186f6b6457e060405160405180910390a3806000806101000a81548173ffffffffffffffffffffffffffffffffffffffff021916908373ffffffffffffffffffffffffffffffffffffffff160217905550505600a165627a7a72305820faef01f57a61fe0047303527d405d09311d1c6516db1d443ca28a898147916a00029",
  "source": "pragma solidity ^0.4.22;\n\nimport \"openzeppelin-solidity/contracts/ownership/Ownable.sol\";\nimport \"openzeppelin-solidity/contracts/payment/PullPayment.sol\";\n\n/// @title Base Contract for FishWarChain. Holds all common structs, events and base variables.\n/// @author Inspius (https://www.inspius.com)\ncontract FishBase is Ownable, PullPayment {\n\t\n\tconstructor() public {}\n\n\t//@dev this game's round.\n\tuint256 round = 0;\n\n\t//@dev this round's end time.\n\tuint256 public endTime;\n\t\n\t//@dev a round time. 15 minutes.\n\tuint256 public roundTime = 15 * 60;\n\t\n\t//@dev total round price\n\tuint256 totalRoundPrice = 0;\n\n\t//@dev Base price to join this game.\n\tuint256 basePrice = 0.01 ether;\n\n\t//@dev 20% of total prev game size will be next Leader Bonus, start at 0 ether.\n\tuint256 leaderBonusPrice = 0 ether;\n\n\t//@dev List of all players in this round.\n    mapping(address => Player) internal players;\n\n\t//@dev eventEndRound event is emitted whenever a admin end this round.\n    event eventEndRound(\n        uint256 nextRound,\n        uint256 nextEndTime,\n        uint256 leaderBonusPrice\n    );\n\t\n\t//@dev When a Player is created, player can start joining this game's round\n    //until the round is ended. The player's value will start at 0.01 ether \n\t//and increase when a player killed a another player.\n\tstruct Player {\n\t\t\n\t\t//@dev the player's round\n        uint256 playerRound;\n\t\t\n\t\t//@dev the player's value. It should start at 0.01 ether\n        uint256 playerValue;\n    }\n\t\n\t//@dev helper to get the dev fee of amount, current is 10%\n\tfunction getDevFee(uint256 amount) internal pure returns(uint256) {\n        return SafeMath.div(SafeMath.mul(amount, 10), 100);\n    }\n\t\n\t//@dev helper to get the leader bonus fee of amount, current is 20%\n\tfunction getLeaderBonusFee(uint256 amount) internal pure returns(uint256) {\n        return SafeMath.div(SafeMath.mul(amount, 20), 100);\n    }\n\n\t//@dev helper to add amount to leader bonus\n\tfunction addLeaderBonus(uint256 amount) internal returns(uint256) {\n\t\tleaderBonusPrice = SafeMath.add(leaderBonusPrice, amount);\n        return leaderBonusPrice;\n    }\n\n\t//@dev helper to add amount to total round price\n\tfunction addTotalRoundPrice(uint256 amount) internal returns(uint256) {\n\t\ttotalRoundPrice = SafeMath.add(totalRoundPrice, amount);\n        return totalRoundPrice;\n    }\n}\n",
  "sourcePath": "/Applications/MAMP/htdocs/FishWarChainContract/contracts/FishBase.sol",
  "compiler": {
    "name": "solc",
    "version": "0.4.24+commit.e67f0147.Emscripten.clang"
  },
  "schemaVersion": "2.0.1",
  "updatedAt": "2018-06-22T06:22:57.339Z"
}