{
  "contractName": "FishCore",
  "abi": [
    {
      "constant": true,
      "inputs": [],
      "name": "totalPayments",
      "outputs": [
        {
          "name": "",
          "type": "uint256"
        }
      ],
      "payable": false,
      "stateMutability": "view",
      "type": "function"
    },
    {
      "constant": true,
      "inputs": [],
      "name": "round",
      "outputs": [
        {
          "name": "",
          "type": "uint256"
        }
      ],
      "payable": false,
      "stateMutability": "view",
      "type": "function"
    },
    {
      "constant": true,
      "inputs": [],
      "name": "endTime",
      "outputs": [
        {
          "name": "",
          "type": "uint256"
        }
      ],
      "payable": false,
      "stateMutability": "view",
      "type": "function"
    },
    {
      "constant": false,
      "inputs": [],
      "name": "withdrawPayments",
      "outputs": [],
      "payable": false,
      "stateMutability": "nonpayable",
      "type": "function"
    },
    {
      "constant": true,
      "inputs": [],
      "name": "totalRoundPrice",
      "outputs": [
        {
          "name": "",
          "type": "uint256"
        }
      ],
      "payable": false,
      "stateMutability": "view",
      "type": "function"
    },
    {
      "constant": false,
      "inputs": [],
      "name": "renounceOwnership",
      "outputs": [],
      "payable": false,
      "stateMutability": "nonpayable",
      "type": "function"
    },
    {
      "constant": true,
      "inputs": [],
      "name": "owner",
      "outputs": [
        {
          "name": "",
          "type": "address"
        }
      ],
      "payable": false,
      "stateMutability": "view",
      "type": "function"
    },
    {
      "constant": true,
      "inputs": [],
      "name": "basePrice",
      "outputs": [
        {
          "name": "",
          "type": "uint256"
        }
      ],
      "payable": false,
      "stateMutability": "view",
      "type": "function"
    },
    {
      "constant": true,
      "inputs": [],
      "name": "currentLeaderBonusPrice",
      "outputs": [
        {
          "name": "",
          "type": "uint256"
        }
      ],
      "payable": false,
      "stateMutability": "view",
      "type": "function"
    },
    {
      "constant": true,
      "inputs": [
        {
          "name": "",
          "type": "address"
        }
      ],
      "name": "payments",
      "outputs": [
        {
          "name": "",
          "type": "uint256"
        }
      ],
      "payable": false,
      "stateMutability": "view",
      "type": "function"
    },
    {
      "constant": false,
      "inputs": [
        {
          "name": "_newOwner",
          "type": "address"
        }
      ],
      "name": "transferOwnership",
      "outputs": [],
      "payable": false,
      "stateMutability": "nonpayable",
      "type": "function"
    },
    {
      "inputs": [],
      "payable": false,
      "stateMutability": "nonpayable",
      "type": "constructor"
    },
    {
      "payable": true,
      "stateMutability": "payable",
      "type": "fallback"
    },
    {
      "anonymous": false,
      "inputs": [
        {
          "indexed": false,
          "name": "nextRound",
          "type": "uint256"
        },
        {
          "indexed": false,
          "name": "nextEndTime",
          "type": "uint256"
        }
      ],
      "name": "eventStartNewRound",
      "type": "event"
    },
    {
      "anonymous": false,
      "inputs": [
        {
          "indexed": false,
          "name": "playerAddress",
          "type": "address"
        },
        {
          "indexed": false,
          "name": "playerValue",
          "type": "uint256"
        }
      ],
      "name": "eventCreatePlayer",
      "type": "event"
    },
    {
      "anonymous": false,
      "inputs": [
        {
          "indexed": true,
          "name": "previousOwner",
          "type": "address"
        }
      ],
      "name": "OwnershipRenounced",
      "type": "event"
    },
    {
      "anonymous": false,
      "inputs": [
        {
          "indexed": true,
          "name": "previousOwner",
          "type": "address"
        },
        {
          "indexed": true,
          "name": "newOwner",
          "type": "address"
        }
      ],
      "name": "OwnershipTransferred",
      "type": "event"
    },
    {
      "constant": false,
      "inputs": [
        {
          "name": "playerAddress",
          "type": "address"
        },
        {
          "name": "playerValue",
          "type": "uint256"
        }
      ],
      "name": "endPlayerGame",
      "outputs": [],
      "payable": false,
      "stateMutability": "nonpayable",
      "type": "function"
    },
    {
      "constant": false,
      "inputs": [
        {
          "name": "playerTop1",
          "type": "address"
        },
        {
          "name": "playerTop2",
          "type": "address"
        },
        {
          "name": "playerTop3",
          "type": "address"
        }
      ],
      "name": "endRound",
      "outputs": [],
      "payable": false,
      "stateMutability": "nonpayable",
      "type": "function"
    },
    {
      "constant": false,
      "inputs": [],
      "name": "startNewRound",
      "outputs": [],
      "payable": false,
      "stateMutability": "nonpayable",
      "type": "function"
    },
    {
      "constant": false,
      "inputs": [],
      "name": "buy",
      "outputs": [
        {
          "name": "",
          "type": "uint256"
        }
      ],
      "payable": true,
      "stateMutability": "payable",
      "type": "function"
    }
  ],
  "bytecode": "0x6080604052600060035560006004556103846005556000600655662386f26fc100006007556000600855600060095534801561003a57600080fd5b50336000806101000a81548173ffffffffffffffffffffffffffffffffffffffff021916908373ffffffffffffffffffffffffffffffffffffffff1602179055506110998061008a6000396000f3006080604052600436106100da576000357c0100000000000000000000000000000000000000000000000000000000900463ffffffff1680625b4487146100e5578063146ca531146101105780633197cbb61461013b5780636103d70b146101665780636db759dd1461017d578063715018a6146101a85780637caeed7d146101bf5780638da5cb5b14610242578063902dfc0b14610299578063a6f2ae3a146102e6578063bd85948c14610304578063c7876ea41461031b578063da490ace14610346578063e2982c2114610371578063f2fde38b146103c8575b6100e33461040b565b005b3480156100f157600080fd5b506100fa610587565b6040518082815260200191505060405180910390f35b34801561011c57600080fd5b5061012561058d565b6040518082815260200191505060405180910390f35b34801561014757600080fd5b50610150610593565b6040518082815260200191505060405180910390f35b34801561017257600080fd5b5061017b610599565b005b34801561018957600080fd5b506101926106c2565b6040518082815260200191505060405180910390f35b3480156101b457600080fd5b506101bd6106c8565b005b3480156101cb57600080fd5b50610240600480360381019080803573ffffffffffffffffffffffffffffffffffffffff169060200190929190803573ffffffffffffffffffffffffffffffffffffffff169060200190929190803573ffffffffffffffffffffffffffffffffffffffff1690602001909291905050506107ca565b005b34801561024e57600080fd5b50610257610acd565b604051808273ffffffffffffffffffffffffffffffffffffffff1673ffffffffffffffffffffffffffffffffffffffff16815260200191505060405180910390f35b3480156102a557600080fd5b506102e4600480360381019080803573ffffffffffffffffffffffffffffffffffffffff16906020019092919080359060200190929190505050610af2565b005b6102ee610c3c565b6040518082815260200191505060405180910390f35b34801561031057600080fd5b50610319610c4a565b005b34801561032757600080fd5b50610330610d39565b6040518082815260200191505060405180910390f35b34801561035257600080fd5b5061035b610d3f565b6040518082815260200191505060405180910390f35b34801561037d57600080fd5b506103b2600480360381019080803573ffffffffffffffffffffffffffffffffffffffff169060200190929190505050610d45565b6040518082815260200191505060405180910390f35b3480156103d457600080fd5b50610409600480360381019080803573ffffffffffffffffffffffffffffffffffffffff169060200190929190505050610d5d565b005b6000806000806007548514151561042157600080fd5b600454421115151561043257600080fd5b61043b85610dc4565b93506104686000809054906101000a900473ffffffffffffffffffffffffffffffffffffffff1685610de2565b61047185610e96565b925061047c83610eb4565b50600a60003373ffffffffffffffffffffffffffffffffffffffff1673ffffffffffffffffffffffffffffffffffffffff16815260200190815260200160002091506104d1346104cc8686610ed2565b610eee565b905060035482600001541415156104ed57600082600101819055505b6104fb826001015482610ed2565b82600101819055506105108260010154610f07565b507fa7fdb3e017b610247579c59cf74e79aa3e2a8517d17434235e7867c4f9d4b5e9338360010154604051808373ffffffffffffffffffffffffffffffffffffffff1673ffffffffffffffffffffffffffffffffffffffff1681526020018281526020019250505060405180910390a15050505050565b60025481565b60035481565b60045481565b600080339150600160008373ffffffffffffffffffffffffffffffffffffffff1673ffffffffffffffffffffffffffffffffffffffff168152602001908152602001600020549050600081141515156105f157600080fd5b803073ffffffffffffffffffffffffffffffffffffffff16311015151561061757600080fd5b61062c81600254610eee90919063ffffffff16565b6002819055506000600160008473ffffffffffffffffffffffffffffffffffffffff1673ffffffffffffffffffffffffffffffffffffffff168152602001908152602001600020819055508173ffffffffffffffffffffffffffffffffffffffff166108fc829081150290604051600060405180830381858888f193505050501580156106bd573d6000803e3d6000fd5b505050565b60065481565b6000809054906101000a900473ffffffffffffffffffffffffffffffffffffffff1673ffffffffffffffffffffffffffffffffffffffff163373ffffffffffffffffffffffffffffffffffffffff1614151561072357600080fd5b6000809054906101000a900473ffffffffffffffffffffffffffffffffffffffff1673ffffffffffffffffffffffffffffffffffffffff167ff8df31144d9c2f0f6b59d69b8b98abd5459d07f2742c4df920b25aae33c6482060405160405180910390a260008060006101000a81548173ffffffffffffffffffffffffffffffffffffffff021916908373ffffffffffffffffffffffffffffffffffffffff160217905550565b60008060008060009054906101000a900473ffffffffffffffffffffffffffffffffffffffff1673ffffffffffffffffffffffffffffffffffffffff163373ffffffffffffffffffffffffffffffffffffffff1614151561082a57600080fd5b6004544211151561083a57600080fd5b600354600a60008873ffffffffffffffffffffffffffffffffffffffff1673ffffffffffffffffffffffffffffffffffffffff1681526020019081526020016000206000015414151561088c57600080fd5b600354600a60008773ffffffffffffffffffffffffffffffffffffffff1673ffffffffffffffffffffffffffffffffffffffff168152602001908152602001600020600001541415156108de57600080fd5b600354600a60008673ffffffffffffffffffffffffffffffffffffffff1673ffffffffffffffffffffffffffffffffffffffff1681526020019081526020016000206000015414151561093057600080fd5b600a60008673ffffffffffffffffffffffffffffffffffffffff1673ffffffffffffffffffffffffffffffffffffffff16815260200190815260200160002060010154600a60008873ffffffffffffffffffffffffffffffffffffffff1673ffffffffffffffffffffffffffffffffffffffff16815260200190815260200160002060010154118015610a465750600a60008573ffffffffffffffffffffffffffffffffffffffff1673ffffffffffffffffffffffffffffffffffffffff16815260200190815260200160002060010154600a60008773ffffffffffffffffffffffffffffffffffffffff1673ffffffffffffffffffffffffffffffffffffffff16815260200190815260200160002060010154115b15610ac557610a62610a5b6008546032610f25565b6064610f5d565b9250610a6e8684610de2565b610a85610a7e600854601e610f25565b6064610f5d565b9150610a918583610de2565b610aa8610aa16008546014610f25565b6064610f5d565b9050610ab48482610de2565b6000600881905550610ac4610c4a565b5b505050505050565b6000809054906101000a900473ffffffffffffffffffffffffffffffffffffffff1681565b60008060009054906101000a900473ffffffffffffffffffffffffffffffffffffffff1673ffffffffffffffffffffffffffffffffffffffff163373ffffffffffffffffffffffffffffffffffffffff16141515610b4f57600080fd5b60045442111515610b5f57600080fd5b600082111515610b6e57600080fd5b600354600a60008573ffffffffffffffffffffffffffffffffffffffff1673ffffffffffffffffffffffffffffffffffffffff16815260200190815260200160002060000154141515610bc057600080fd5b600a60008473ffffffffffffffffffffffffffffffffffffffff1673ffffffffffffffffffffffffffffffffffffffff16815260200190815260200160002090506003548160000154148015610c1a575081816001015410155b15610c3757818160010181905550610c36838260010154610de2565b5b505050565b6000610c473461040b565b90565b6000809054906101000a900473ffffffffffffffffffffffffffffffffffffffff1673ffffffffffffffffffffffffffffffffffffffff163373ffffffffffffffffffffffffffffffffffffffff16141515610ca557600080fd5b60045442111515610cb557600080fd5b610cc142600554610ed2565b600481905550610cd46003546001610ed2565b60038190555060095460088190555060006009819055506008546006819055507fa8643b6863048eb0c1c37773430ad7fef4b12936fb66672ca707a7170ace5a5f600354600454604051808381526020018281526020019250505060405180910390a1565b60075481565b60085481565b60016020528060005260406000206000915090505481565b6000809054906101000a900473ffffffffffffffffffffffffffffffffffffffff1673ffffffffffffffffffffffffffffffffffffffff163373ffffffffffffffffffffffffffffffffffffffff16141515610db857600080fd5b610dc181610f73565b50565b6000610ddb610dd483600a610f25565b6064610f5d565b9050919050565b610e3481600160008573ffffffffffffffffffffffffffffffffffffffff1673ffffffffffffffffffffffffffffffffffffffff16815260200190815260200160002054610ed290919063ffffffff16565b600160008473ffffffffffffffffffffffffffffffffffffffff1673ffffffffffffffffffffffffffffffffffffffff16815260200190815260200160002081905550610e8c81600254610ed290919063ffffffff16565b6002819055505050565b6000610ead610ea6836014610f25565b6064610f5d565b9050919050565b6000610ec260095483610ed2565b6009819055506009549050919050565b60008183019050828110151515610ee557fe5b80905092915050565b6000828211151515610efc57fe5b818303905092915050565b6000610f1560065483610ed2565b6006819055506006549050919050565b600080831415610f385760009050610f57565b8183029050818382811515610f4957fe5b04141515610f5357fe5b8090505b92915050565b60008183811515610f6a57fe5b04905092915050565b600073ffffffffffffffffffffffffffffffffffffffff168173ffffffffffffffffffffffffffffffffffffffff1614151515610faf57600080fd5b8073ffffffffffffffffffffffffffffffffffffffff166000809054906101000a900473ffffffffffffffffffffffffffffffffffffffff1673ffffffffffffffffffffffffffffffffffffffff167f8be0079c531659141344cd1fd0a4f28419497f9722a3daafe3b4186f6b6457e060405160405180910390a3806000806101000a81548173ffffffffffffffffffffffffffffffffffffffff021916908373ffffffffffffffffffffffffffffffffffffffff160217905550505600a165627a7a72305820647c2eefdabc76d4b8981d12aad469fa79262af7488f37b0441281b4fdead0920029",
  "source": "pragma solidity ^0.4.22;\n\nimport './FishBase.sol';\n\n//@title Base Contract for FishWarChain. Holds all functions related to the game's round.\n//@author Inspius (https://www.inspius.com)\ncontract FishCore is FishBase {\n\t\n\tconstructor() public {\n\t}\n\n\t//@dev end player game and transfer the reward, only owner .\n\t//all players need update the value before can endRound()\n\tfunction endPlayerGame(address playerAddress, uint256 playerValue)\n\t\tpublic\n\t\tonlyOwner\n\t{\n\t\trequire(now > endTime);\n\t\trequire(playerValue > 0);\n\t\trequire(players[playerAddress].playerRound == round);\n\n\t\tPlayer storage player = players[playerAddress];\n\n\t\t//@dev check the player round and current playerValue\n\t\tif(player.playerRound == round && player.playerValue >= playerValue) {\n\t\t\t\n\t\t\t//@dev update the player value and send reward\n\t\t\tplayer.playerValue = playerValue;\n\t\t\tasyncSend(playerAddress, player.playerValue);\n\n\t\t}\n\t}\n\n\t//@dev end current round, give top players the bonus and start the new one, only owner can.\n\tfunction endRound(address playerTop1, address playerTop2, address playerTop3)\n\t\tpublic\n\t\tonlyOwner\n\t{\n\t\trequire(now > endTime);\n\t\trequire(players[playerTop1].playerRound == round);\n\t\trequire(players[playerTop2].playerRound == round);\n\t\trequire(players[playerTop3].playerRound == round);\n\t\t\n\t\t//@dev end sure the top players are ended game\n\t\tif(players[playerTop1].playerValue > players[playerTop2].playerValue && players[playerTop2].playerValue > players[playerTop3].playerValue) {\n\n\t\t\t//@dev cut the top 1 player reward from current leader bonus price\n\t\t\tuint256 bonusForPlayerTop1 = SafeMath.div(SafeMath.mul(currentLeaderBonusPrice, 50), 100);\n\t\t\tasyncSend(playerTop1, bonusForPlayerTop1);\n\n\t\t\t//@dev cut the top 2 player reward from current leader bonus price\n\t\t\tuint256 bonusForPlayerTop2 = SafeMath.div(SafeMath.mul(currentLeaderBonusPrice, 30), 100);\n\t\t\tasyncSend(playerTop2, bonusForPlayerTop2);\n\n\t\t\t//@dev cut the top 3 player reward from current leader bonus price\n\t\t\tuint256 bonusForPlayerTop3 = SafeMath.div(SafeMath.mul(currentLeaderBonusPrice, 20), 100);\n\t\t\tasyncSend(playerTop3, bonusForPlayerTop3);\n\t\t\t\n\t\t\t//@dev reset current leader bonus price\n\t\t\tcurrentLeaderBonusPrice = 0;\n\t\t\t\n\t\t\t//@dev go for new round\n\t\t\tstartNewRound();\n\t\t}\n\t}\n\n\t//@dev start a new round, only owner can.\n\tfunction startNewRound()\n\t\tpublic\n\t\tonlyOwner\n\t{\n\t\trequire(now > endTime);\n\t\t\n\t\t//@dev update end time for this new round\n\t\tendTime = SafeMath.add(now, roundTime);\n\n\t\t//@dev update round to new round\n        round = SafeMath.add(round, 1);\n\t\t\n\t\t//@dev use next leader bonus price as current leader bonus price\n\t\tcurrentLeaderBonusPrice = nextLeaderBonusPrice;\n\t\t\n\t\t//@dev reset next leader bonus price to zero\n\t\tnextLeaderBonusPrice = 0;\n\n\t\t//@dev use leader bonus price as start total round price\n\t\ttotalRoundPrice = currentLeaderBonusPrice;\n\n\t\t//emit started new round event\n\t\temit eventStartNewRound(round, endTime);\n\t}\n\n\t//@dev buy a fish to join the game\n\tfunction buy()\n        public\n        payable\n        returns(uint256)\n    {\n        createPlayer(msg.value);\n    }\n\t\n\t//@dev create player to join this round.\n    function createPlayer(uint256 incomingEthereum)\n        internal\n    {\n\t\trequire(incomingEthereum == basePrice);\n\t\trequire(now <= endTime);\n\n\t\t//@dev cut the dev fee\n\t\tuint256 devFee = getDevFee(incomingEthereum);\n\t\tasyncSend(owner, devFee);\n\n\t\t//@dev cut the leader bonus fee to next round\n\t\tuint256 leaderBonusFee = getLeaderBonusFee(incomingEthereum);\t\t\n\t\taddNextLeaderBonus(leaderBonusFee);\n\t\t\n\t\tPlayer storage player = players[msg.sender];\n\t\t\n\t\tuint256 valueAfterFee = SafeMath.sub(msg.value, SafeMath.add(devFee, leaderBonusFee));\n\t\t\n\t\t//@dev reset player value for this round\n\t\tif(player.playerRound != round) {\n\t\t\tplayer.playerValue = 0;\n\t\t}\n\t\t\n\t\t//@dev add the player value\n\t\tplayer.playerValue = SafeMath.add(player.playerValue, valueAfterFee);\n\t\t\n\t\t//@dev add the value to this round\n\t\taddTotalRoundPrice(player.playerValue);\n\t\t\n\t\t//@dev emit created player event\n\t\temit eventCreatePlayer(msg.sender, player.playerValue);\n    }\n\t\n\t//@dev fallback function to handle ethereum that was send straight to the contract\n\tfunction()\n        payable\n        public\n    {\n        createPlayer(msg.value);\n    }\n}\n",
  "sourcePath": "/Applications/MAMP/htdocs/FishWarChainContract/contracts/FishCore.sol",
  "compiler": {
    "name": "solc",
    "version": "0.4.24+commit.e67f0147.Emscripten.clang"
  },
  "schemaVersion": "2.0.1",
  "updatedAt": "2018-06-22T09:14:26.256Z"
}