{
  "contractName": "FishBase",
  "abi": [
    {
      "constant": true,
      "inputs": [],
      "name": "totalPayments",
      "outputs": [
        {
          "name": "",
          "type": "uint256"
        }
      ],
      "payable": false,
      "stateMutability": "view",
      "type": "function"
    },
    {
      "constant": true,
      "inputs": [],
      "name": "round",
      "outputs": [
        {
          "name": "",
          "type": "uint256"
        }
      ],
      "payable": false,
      "stateMutability": "view",
      "type": "function"
    },
    {
      "constant": true,
      "inputs": [],
      "name": "endTime",
      "outputs": [
        {
          "name": "",
          "type": "uint256"
        }
      ],
      "payable": false,
      "stateMutability": "view",
      "type": "function"
    },
    {
      "constant": false,
      "inputs": [],
      "name": "withdrawPayments",
      "outputs": [],
      "payable": false,
      "stateMutability": "nonpayable",
      "type": "function"
    },
    {
      "constant": true,
      "inputs": [],
      "name": "totalRoundPrice",
      "outputs": [
        {
          "name": "",
          "type": "uint256"
        }
      ],
      "payable": false,
      "stateMutability": "view",
      "type": "function"
    },
    {
      "constant": true,
      "inputs": [
        {
          "name": "",
          "type": "address"
        }
      ],
      "name": "lastRoundPlayers",
      "outputs": [
        {
          "name": "",
          "type": "uint256"
        }
      ],
      "payable": false,
      "stateMutability": "view",
      "type": "function"
    },
    {
      "constant": false,
      "inputs": [],
      "name": "renounceOwnership",
      "outputs": [],
      "payable": false,
      "stateMutability": "nonpayable",
      "type": "function"
    },
    {
      "constant": true,
      "inputs": [],
      "name": "owner",
      "outputs": [
        {
          "name": "",
          "type": "address"
        }
      ],
      "payable": false,
      "stateMutability": "view",
      "type": "function"
    },
    {
      "constant": true,
      "inputs": [],
      "name": "basePrice",
      "outputs": [
        {
          "name": "",
          "type": "uint256"
        }
      ],
      "payable": false,
      "stateMutability": "view",
      "type": "function"
    },
    {
      "constant": true,
      "inputs": [],
      "name": "currentLeaderBonusPrice",
      "outputs": [
        {
          "name": "",
          "type": "uint256"
        }
      ],
      "payable": false,
      "stateMutability": "view",
      "type": "function"
    },
    {
      "constant": true,
      "inputs": [
        {
          "name": "",
          "type": "address"
        }
      ],
      "name": "payments",
      "outputs": [
        {
          "name": "",
          "type": "uint256"
        }
      ],
      "payable": false,
      "stateMutability": "view",
      "type": "function"
    },
    {
      "constant": false,
      "inputs": [
        {
          "name": "_newOwner",
          "type": "address"
        }
      ],
      "name": "transferOwnership",
      "outputs": [],
      "payable": false,
      "stateMutability": "nonpayable",
      "type": "function"
    },
    {
      "inputs": [],
      "payable": false,
      "stateMutability": "nonpayable",
      "type": "constructor"
    },
    {
      "anonymous": false,
      "inputs": [
        {
          "indexed": false,
          "name": "nextRound",
          "type": "uint256"
        },
        {
          "indexed": false,
          "name": "nextEndTime",
          "type": "uint256"
        }
      ],
      "name": "eventStartNewRound",
      "type": "event"
    },
    {
      "anonymous": false,
      "inputs": [
        {
          "indexed": false,
          "name": "playerAddress",
          "type": "address"
        },
        {
          "indexed": false,
          "name": "playerRound",
          "type": "uint256"
        },
        {
          "indexed": false,
          "name": "playerValue",
          "type": "uint256"
        }
      ],
      "name": "eventCreatePlayer",
      "type": "event"
    },
    {
      "anonymous": false,
      "inputs": [
        {
          "indexed": true,
          "name": "previousOwner",
          "type": "address"
        }
      ],
      "name": "OwnershipRenounced",
      "type": "event"
    },
    {
      "anonymous": false,
      "inputs": [
        {
          "indexed": true,
          "name": "previousOwner",
          "type": "address"
        },
        {
          "indexed": true,
          "name": "newOwner",
          "type": "address"
        }
      ],
      "name": "OwnershipTransferred",
      "type": "event"
    }
  ],
  "bytecode": "0x6080604052600060035560006004556103846005556000600655662386f26fc100006007556000600855600060095534801561003a57600080fd5b50336000806101000a81548173ffffffffffffffffffffffffffffffffffffffff021916908373ffffffffffffffffffffffffffffffffffffffff1602179055506107808061008a6000396000f3006080604052600436106100b9576000357c0100000000000000000000000000000000000000000000000000000000900463ffffffff1680625b4487146100be578063146ca531146100e95780633197cbb6146101145780636103d70b1461013f5780636db759dd146101565780637084df3e14610181578063715018a6146101d85780638da5cb5b146101ef578063c7876ea414610246578063da490ace14610271578063e2982c211461029c578063f2fde38b146102f3575b600080fd5b3480156100ca57600080fd5b506100d3610336565b6040518082815260200191505060405180910390f35b3480156100f557600080fd5b506100fe61033c565b6040518082815260200191505060405180910390f35b34801561012057600080fd5b50610129610342565b6040518082815260200191505060405180910390f35b34801561014b57600080fd5b50610154610348565b005b34801561016257600080fd5b5061016b610471565b6040518082815260200191505060405180910390f35b34801561018d57600080fd5b506101c2600480360381019080803573ffffffffffffffffffffffffffffffffffffffff169060200190929190505050610477565b6040518082815260200191505060405180910390f35b3480156101e457600080fd5b506101ed61048f565b005b3480156101fb57600080fd5b50610204610591565b604051808273ffffffffffffffffffffffffffffffffffffffff1673ffffffffffffffffffffffffffffffffffffffff16815260200191505060405180910390f35b34801561025257600080fd5b5061025b6105b6565b6040518082815260200191505060405180910390f35b34801561027d57600080fd5b506102866105bc565b6040518082815260200191505060405180910390f35b3480156102a857600080fd5b506102dd600480360381019080803573ffffffffffffffffffffffffffffffffffffffff1690602001909291905050506105c2565b6040518082815260200191505060405180910390f35b3480156102ff57600080fd5b50610334600480360381019080803573ffffffffffffffffffffffffffffffffffffffff1690602001909291905050506105da565b005b60025481565b60035481565b60045481565b600080339150600160008373ffffffffffffffffffffffffffffffffffffffff1673ffffffffffffffffffffffffffffffffffffffff168152602001908152602001600020549050600081141515156103a057600080fd5b803073ffffffffffffffffffffffffffffffffffffffff1631101515156103c657600080fd5b6103db8160025461064190919063ffffffff16565b6002819055506000600160008473ffffffffffffffffffffffffffffffffffffffff1673ffffffffffffffffffffffffffffffffffffffff168152602001908152602001600020819055508173ffffffffffffffffffffffffffffffffffffffff166108fc829081150290604051600060405180830381858888f1935050505015801561046c573d6000803e3d6000fd5b505050565b60065481565b600b6020528060005260406000206000915090505481565b6000809054906101000a900473ffffffffffffffffffffffffffffffffffffffff1673ffffffffffffffffffffffffffffffffffffffff163373ffffffffffffffffffffffffffffffffffffffff161415156104ea57600080fd5b6000809054906101000a900473ffffffffffffffffffffffffffffffffffffffff1673ffffffffffffffffffffffffffffffffffffffff167ff8df31144d9c2f0f6b59d69b8b98abd5459d07f2742c4df920b25aae33c6482060405160405180910390a260008060006101000a81548173ffffffffffffffffffffffffffffffffffffffff021916908373ffffffffffffffffffffffffffffffffffffffff160217905550565b6000809054906101000a900473ffffffffffffffffffffffffffffffffffffffff1681565b60075481565b60085481565b60016020528060005260406000206000915090505481565b6000809054906101000a900473ffffffffffffffffffffffffffffffffffffffff1673ffffffffffffffffffffffffffffffffffffffff163373ffffffffffffffffffffffffffffffffffffffff1614151561063557600080fd5b61063e8161065a565b50565b600082821115151561064f57fe5b818303905092915050565b600073ffffffffffffffffffffffffffffffffffffffff168173ffffffffffffffffffffffffffffffffffffffff161415151561069657600080fd5b8073ffffffffffffffffffffffffffffffffffffffff166000809054906101000a900473ffffffffffffffffffffffffffffffffffffffff1673ffffffffffffffffffffffffffffffffffffffff167f8be0079c531659141344cd1fd0a4f28419497f9722a3daafe3b4186f6b6457e060405160405180910390a3806000806101000a81548173ffffffffffffffffffffffffffffffffffffffff021916908373ffffffffffffffffffffffffffffffffffffffff160217905550505600a165627a7a72305820157bfbb534f4323e4d58e5c5674b036dd39cd20b0b7b9365316ff71b3bfae4db0029",
  "source": "pragma solidity ^0.4.22;\n\nimport \"openzeppelin-solidity/contracts/ownership/Ownable.sol\";\nimport \"openzeppelin-solidity/contracts/payment/PullPayment.sol\";\n\n/// @title Base Contract for FishWarChain. Holds all common structs, events and base variables.\n/// @author Inspius (https://www.inspius.com)\ncontract FishBase is Ownable, PullPayment {\n\t\n\tconstructor() public {}\n\n\t//@dev this game's round.\n\tuint256 public round = 0;\n\n\t//@dev this round's end time.\n\tuint256 public endTime = 0;\n\t\n\t//@dev a round time. 15 minutes.\n\tuint256 roundTime = 15 * 60;\n\t\n\t//@dev total round price\n\tuint256 public totalRoundPrice = 0 ether;\n\n\t//@dev Base price to join this game.\n\tuint256 public basePrice = 0.01 ether;\n\t\n\t//@dev current leader bonus price. start at 0 ether\n\tuint256 public currentLeaderBonusPrice = 0 ether;\n\n\t//@dev 20% of total prev game size will be next Leader Bonus, start at 0 ether.\n\tuint256 nextLeaderBonusPrice = 0 ether;\n\n\t//@dev List of all players in this round.\n    mapping(address => Player) internal players;\n\t\n\t//@dev last round players. All players are in last round.\n    mapping(address => uint256) public lastRoundPlayers;\n\n\t//@dev eventStartNewRound event is emitted whenever a new round is started.\n    event eventStartNewRound(\n        uint256 nextRound,\n        uint256 nextEndTime\n    );\n\n\t//@dev eventCreatePlayer event is emitted whenever a playe is created.\n    event eventCreatePlayer(\n        address playerAddress,\n\t\tuint256 playerRound,\n\t\tuint256 playerValue\n    );\n\t\n\t//@dev When a Player is created, player can start joining this game's round\n    //until the round is ended. The player's value will start at 0.01 ether \n\t//and increase when a player killed a another player.\n\tstruct Player {\n\t\t\n\t\t//@dev the player's round\n        uint256 playerRound;\n\t\t\n\t\t//@dev the player's value. It should start at 0.01 ether\n        uint256 playerValue;\n\n    }\n\t\n\t//@dev helper to get the dev fee of amount, current is 10%\n\tfunction getDevFee(uint256 amount) internal pure returns(uint256) {\n        return SafeMath.div(SafeMath.mul(amount, 10), 100);\n    }\n\t\n\t//@dev helper to get the leader bonus fee of amount, current is 20%\n\tfunction getLeaderBonusFee(uint256 amount) internal pure returns(uint256) {\n        return SafeMath.div(SafeMath.mul(amount, 20), 100);\n    }\n\n\t//@dev helper to add amount to leader bonus\n\tfunction addNextLeaderBonus(uint256 amount) internal returns(uint256) {\n\t\tnextLeaderBonusPrice = SafeMath.add(nextLeaderBonusPrice, amount);\n        return nextLeaderBonusPrice;\n    }\n\n\t//@dev helper to add amount to total round price\n\tfunction addTotalRoundPrice(uint256 amount) internal returns(uint256) {\n\t\ttotalRoundPrice = SafeMath.add(totalRoundPrice, amount);\n        return totalRoundPrice;\n    }\n}\n",
  "sourcePath": "/var/www/html/FishWarChainContract/contracts/FishBase.sol",
  "compiler": {
    "name": "solc",
    "version": "0.4.23+commit.124ca40d.Emscripten.clang"
  },
  "schemaVersion": "2.0.0",
  "updatedAt": "2018-07-10T10:05:29.267Z"
}