{
  "contractName": "FishCore",
  "abi": [
    {
      "constant": true,
      "inputs": [],
      "name": "totalPayments",
      "outputs": [
        {
          "name": "",
          "type": "uint256"
        }
      ],
      "payable": false,
      "stateMutability": "view",
      "type": "function"
    },
    {
      "constant": true,
      "inputs": [],
      "name": "round",
      "outputs": [
        {
          "name": "",
          "type": "uint256"
        }
      ],
      "payable": false,
      "stateMutability": "view",
      "type": "function"
    },
    {
      "constant": true,
      "inputs": [],
      "name": "endTime",
      "outputs": [
        {
          "name": "",
          "type": "uint256"
        }
      ],
      "payable": false,
      "stateMutability": "view",
      "type": "function"
    },
    {
      "constant": false,
      "inputs": [],
      "name": "withdrawPayments",
      "outputs": [],
      "payable": false,
      "stateMutability": "nonpayable",
      "type": "function"
    },
    {
      "constant": true,
      "inputs": [],
      "name": "totalRoundPrice",
      "outputs": [
        {
          "name": "",
          "type": "uint256"
        }
      ],
      "payable": false,
      "stateMutability": "view",
      "type": "function"
    },
    {
      "constant": true,
      "inputs": [
        {
          "name": "",
          "type": "address"
        }
      ],
      "name": "lastRoundPlayers",
      "outputs": [
        {
          "name": "",
          "type": "uint256"
        }
      ],
      "payable": false,
      "stateMutability": "view",
      "type": "function"
    },
    {
      "constant": false,
      "inputs": [],
      "name": "renounceOwnership",
      "outputs": [],
      "payable": false,
      "stateMutability": "nonpayable",
      "type": "function"
    },
    {
      "constant": true,
      "inputs": [],
      "name": "owner",
      "outputs": [
        {
          "name": "",
          "type": "address"
        }
      ],
      "payable": false,
      "stateMutability": "view",
      "type": "function"
    },
    {
      "constant": true,
      "inputs": [],
      "name": "basePrice",
      "outputs": [
        {
          "name": "",
          "type": "uint256"
        }
      ],
      "payable": false,
      "stateMutability": "view",
      "type": "function"
    },
    {
      "constant": true,
      "inputs": [],
      "name": "currentLeaderBonusPrice",
      "outputs": [
        {
          "name": "",
          "type": "uint256"
        }
      ],
      "payable": false,
      "stateMutability": "view",
      "type": "function"
    },
    {
      "constant": true,
      "inputs": [
        {
          "name": "",
          "type": "address"
        }
      ],
      "name": "payments",
      "outputs": [
        {
          "name": "",
          "type": "uint256"
        }
      ],
      "payable": false,
      "stateMutability": "view",
      "type": "function"
    },
    {
      "constant": false,
      "inputs": [
        {
          "name": "_newOwner",
          "type": "address"
        }
      ],
      "name": "transferOwnership",
      "outputs": [],
      "payable": false,
      "stateMutability": "nonpayable",
      "type": "function"
    },
    {
      "inputs": [],
      "payable": false,
      "stateMutability": "nonpayable",
      "type": "constructor"
    },
    {
      "payable": true,
      "stateMutability": "payable",
      "type": "fallback"
    },
    {
      "anonymous": false,
      "inputs": [
        {
          "indexed": false,
          "name": "nextRound",
          "type": "uint256"
        },
        {
          "indexed": false,
          "name": "nextEndTime",
          "type": "uint256"
        }
      ],
      "name": "eventStartNewRound",
      "type": "event"
    },
    {
      "anonymous": false,
      "inputs": [
        {
          "indexed": false,
          "name": "playerAddress",
          "type": "address"
        },
        {
          "indexed": false,
          "name": "playerRound",
          "type": "uint256"
        },
        {
          "indexed": false,
          "name": "playerValue",
          "type": "uint256"
        }
      ],
      "name": "eventCreatePlayer",
      "type": "event"
    },
    {
      "anonymous": false,
      "inputs": [
        {
          "indexed": true,
          "name": "previousOwner",
          "type": "address"
        }
      ],
      "name": "OwnershipRenounced",
      "type": "event"
    },
    {
      "anonymous": false,
      "inputs": [
        {
          "indexed": true,
          "name": "previousOwner",
          "type": "address"
        },
        {
          "indexed": true,
          "name": "newOwner",
          "type": "address"
        }
      ],
      "name": "OwnershipTransferred",
      "type": "event"
    },
    {
      "constant": false,
      "inputs": [
        {
          "name": "clientRound",
          "type": "uint256"
        },
        {
          "name": "clientPlayers",
          "type": "address[]"
        },
        {
          "name": "values",
          "type": "uint256[]"
        }
      ],
      "name": "endRound",
      "outputs": [],
      "payable": false,
      "stateMutability": "nonpayable",
      "type": "function"
    },
    {
      "constant": false,
      "inputs": [],
      "name": "startNewRound",
      "outputs": [],
      "payable": false,
      "stateMutability": "nonpayable",
      "type": "function"
    },
    {
      "constant": false,
      "inputs": [],
      "name": "buy",
      "outputs": [],
      "payable": true,
      "stateMutability": "payable",
      "type": "function"
    }
  ],
  "bytecode": "0x6080604052600060035560006004556103846005556000600655662386f26fc100006007556000600855600060095534801561003a57600080fd5b50336000806101000a81548173ffffffffffffffffffffffffffffffffffffffff021916908373ffffffffffffffffffffffffffffffffffffffff1602179055506113a88061008a6000396000f3006080604052600436106100da576000357c0100000000000000000000000000000000000000000000000000000000900463ffffffff1680625b4487146100df5780630d92b19b1461010a578063146ca531146101bd5780633197cbb6146101e85780636103d70b146102135780636db759dd1461022a5780637084df3e14610255578063715018a6146102ac5780638da5cb5b146102c3578063a6f2ae3a1461031a578063bd85948c14610324578063c7876ea41461033b578063da490ace14610366578063e2982c2114610391578063f2fde38b146103e8575b600080fd5b3480156100eb57600080fd5b506100f461042b565b6040518082815260200191505060405180910390f35b34801561011657600080fd5b506101bb600480360381019080803590602001909291908035906020019082018035906020019080806020026020016040519081016040528093929190818152602001838360200280828437820191505050505050919291929080359060200190820180359060200190808060200260200160405190810160405280939291908181526020018383602002808284378201915050505050509192919290505050610431565b005b3480156101c957600080fd5b506101d2610ac9565b6040518082815260200191505060405180910390f35b3480156101f457600080fd5b506101fd610acf565b6040518082815260200191505060405180910390f35b34801561021f57600080fd5b50610228610ad5565b005b34801561023657600080fd5b5061023f610bfe565b6040518082815260200191505060405180910390f35b34801561026157600080fd5b50610296600480360381019080803573ffffffffffffffffffffffffffffffffffffffff169060200190929190505050610c04565b6040518082815260200191505060405180910390f35b3480156102b857600080fd5b506102c1610c1c565b005b3480156102cf57600080fd5b506102d8610d1e565b604051808273ffffffffffffffffffffffffffffffffffffffff1673ffffffffffffffffffffffffffffffffffffffff16815260200191505060405180910390f35b610322610d43565b005b34801561033057600080fd5b50610339610daa565b005b34801561034757600080fd5b50610350610eb9565b6040518082815260200191505060405180910390f35b34801561037257600080fd5b5061037b610ebf565b6040518082815260200191505060405180910390f35b34801561039d57600080fd5b506103d2600480360381019080803573ffffffffffffffffffffffffffffffffffffffff169060200190929190505050610ec5565b6040518082815260200191505060405180910390f35b3480156103f457600080fd5b50610429600480360381019080803573ffffffffffffffffffffffffffffffffffffffff169060200190929190505050610edd565b005b60025481565b60008060008060008060009054906101000a900473ffffffffffffffffffffffffffffffffffffffff1673ffffffffffffffffffffffffffffffffffffffff163373ffffffffffffffffffffffffffffffffffffffff1614151561049457600080fd5b600454421115156104a457600080fd5b600354881415156104b457600080fd5b600094505b865185101561065357600354600a600089888151811015156104d757fe5b9060200190602002015173ffffffffffffffffffffffffffffffffffffffff1673ffffffffffffffffffffffffffffffffffffffff16815260200190815260200160002060000154141561064857600a6000888781518110151561053757fe5b9060200190602002015173ffffffffffffffffffffffffffffffffffffffff1673ffffffffffffffffffffffffffffffffffffffff1681526020019081526020016000209350858581518110151561058b57fe5b9060200190602002015184600101819055506105d587868151811015156105ae57fe5b9060200190602002015187878151811015156105c657fe5b90602001906020020151610f44565b85858151811015156105e357fe5b90602001906020020151600b600089888151811015156105ff57fe5b9060200190602002015173ffffffffffffffffffffffffffffffffffffffff1673ffffffffffffffffffffffffffffffffffffffff168152602001908152602001600020819055505b6001850194506104b9565b6000851180156106be5750600354600a600089600081518110151561067457fe5b9060200190602002015173ffffffffffffffffffffffffffffffffffffffff1673ffffffffffffffffffffffffffffffffffffffff16815260200190815260200160002060000154145b156107cd576106da6106d36008546032610ff8565b6064611030565b92506106fe8760008151811015156106ee57fe5b9060200190602002015184610f44565b61075f600b600089600081518110151561071457fe5b9060200190602002015173ffffffffffffffffffffffffffffffffffffffff1673ffffffffffffffffffffffffffffffffffffffff1681526020019081526020016000205484611046565b600b600089600081518110151561077257fe5b9060200190602002015173ffffffffffffffffffffffffffffffffffffffff1673ffffffffffffffffffffffffffffffffffffffff168152602001908152602001600020819055506107c660085484611062565b6008819055505b6001851180156108385750600354600a60008960018151811015156107ee57fe5b9060200190602002015173ffffffffffffffffffffffffffffffffffffffff1673ffffffffffffffffffffffffffffffffffffffff16815260200190815260200160002060000154145b156109475761085461084d600854601e610ff8565b6064611030565b915061087887600181518110151561086857fe5b9060200190602002015183610f44565b6108d9600b600089600181518110151561088e57fe5b9060200190602002015173ffffffffffffffffffffffffffffffffffffffff1673ffffffffffffffffffffffffffffffffffffffff1681526020019081526020016000205483611046565b600b60008960018151811015156108ec57fe5b9060200190602002015173ffffffffffffffffffffffffffffffffffffffff1673ffffffffffffffffffffffffffffffffffffffff1681526020019081526020016000208190555061094060085483611062565b6008819055505b6002851180156109b25750600354600a600089600281518110151561096857fe5b9060200190602002015173ffffffffffffffffffffffffffffffffffffffff1673ffffffffffffffffffffffffffffffffffffffff16815260200190815260200160002060000154145b15610ab7576109ce6109c76008546014610ff8565b6064611030565b90506109f28760028151811015156109e257fe5b9060200190602002015182610f44565b610a53600b6000896002815181101515610a0857fe5b9060200190602002015173ffffffffffffffffffffffffffffffffffffffff1673ffffffffffffffffffffffffffffffffffffffff1681526020019081526020016000205482611046565b600b6000896002815181101515610a6657fe5b9060200190602002015173ffffffffffffffffffffffffffffffffffffffff1673ffffffffffffffffffffffffffffffffffffffff1681526020019081526020016000208190555060006008819055505b610abf610daa565b5050505050505050565b60035481565b60045481565b600080339150600160008373ffffffffffffffffffffffffffffffffffffffff1673ffffffffffffffffffffffffffffffffffffffff16815260200190815260200160002054905060008114151515610b2d57600080fd5b803073ffffffffffffffffffffffffffffffffffffffff163110151515610b5357600080fd5b610b688160025461106290919063ffffffff16565b6002819055506000600160008473ffffffffffffffffffffffffffffffffffffffff1673ffffffffffffffffffffffffffffffffffffffff168152602001908152602001600020819055508173ffffffffffffffffffffffffffffffffffffffff166108fc829081150290604051600060405180830381858888f19350505050158015610bf9573d6000803e3d6000fd5b505050565b60065481565b600b6020528060005260406000206000915090505481565b6000809054906101000a900473ffffffffffffffffffffffffffffffffffffffff1673ffffffffffffffffffffffffffffffffffffffff163373ffffffffffffffffffffffffffffffffffffffff16141515610c7757600080fd5b6000809054906101000a900473ffffffffffffffffffffffffffffffffffffffff1673ffffffffffffffffffffffffffffffffffffffff167ff8df31144d9c2f0f6b59d69b8b98abd5459d07f2742c4df920b25aae33c6482060405160405180910390a260008060006101000a81548173ffffffffffffffffffffffffffffffffffffffff021916908373ffffffffffffffffffffffffffffffffffffffff160217905550565b6000809054906101000a900473ffffffffffffffffffffffffffffffffffffffff1681565b6000809054906101000a900473ffffffffffffffffffffffffffffffffffffffff1673ffffffffffffffffffffffffffffffffffffffff163373ffffffffffffffffffffffffffffffffffffffff1614151515610d9f57600080fd5b610da83461107b565b565b6000809054906101000a900473ffffffffffffffffffffffffffffffffffffffff1673ffffffffffffffffffffffffffffffffffffffff163373ffffffffffffffffffffffffffffffffffffffff16141515610e0557600080fd5b60045442111515610e1557600080fd5b610e2142600554611046565b600481905550610e346003546001611046565b60038190555060006008541115610e5a57610e53600954600854611046565b6009819055505b60095460088190555060006009819055506008546006819055507fa8643b6863048eb0c1c37773430ad7fef4b12936fb66672ca707a7170ace5a5f600354600454604051808381526020018281526020019250505060405180910390a1565b60075481565b60085481565b60016020528060005260406000206000915090505481565b6000809054906101000a900473ffffffffffffffffffffffffffffffffffffffff1673ffffffffffffffffffffffffffffffffffffffff163373ffffffffffffffffffffffffffffffffffffffff16141515610f3857600080fd5b610f418161120a565b50565b610f9681600160008573ffffffffffffffffffffffffffffffffffffffff1673ffffffffffffffffffffffffffffffffffffffff1681526020019081526020016000205461104690919063ffffffff16565b600160008473ffffffffffffffffffffffffffffffffffffffff1673ffffffffffffffffffffffffffffffffffffffff16815260200190815260200160002081905550610fee8160025461104690919063ffffffff16565b6002819055505050565b60008083141561100b576000905061102a565b818302905081838281151561101c57fe5b0414151561102657fe5b8090505b92915050565b6000818381151561103d57fe5b04905092915050565b6000818301905082811015151561105957fe5b80905092915050565b600082821115151561107057fe5b818303905092915050565b6000806000806007548514151561109157600080fd5b60045442111515156110a257600080fd5b6110ab85611304565b93506110d86000809054906101000a900473ffffffffffffffffffffffffffffffffffffffff1685610f44565b6110e185611322565b92506110ec83611340565b50600a60003373ffffffffffffffffffffffffffffffffffffffff1673ffffffffffffffffffffffffffffffffffffffff16815260200190815260200160002091506003548260000154141515611153576000826001018190555060035482600001819055505b611166346111618686611046565b611062565b9050611176826001015482611046565b82600101819055506111878161135e565b507f273b2c6919c543e2043aa484ce5a46c554ac13bedcb07afc317ad9605a520ee43383600001548460010154604051808473ffffffffffffffffffffffffffffffffffffffff1673ffffffffffffffffffffffffffffffffffffffff168152602001838152602001828152602001935050505060405180910390a15050505050565b600073ffffffffffffffffffffffffffffffffffffffff168173ffffffffffffffffffffffffffffffffffffffff161415151561124657600080fd5b8073ffffffffffffffffffffffffffffffffffffffff166000809054906101000a900473ffffffffffffffffffffffffffffffffffffffff1673ffffffffffffffffffffffffffffffffffffffff167f8be0079c531659141344cd1fd0a4f28419497f9722a3daafe3b4186f6b6457e060405160405180910390a3806000806101000a81548173ffffffffffffffffffffffffffffffffffffffff021916908373ffffffffffffffffffffffffffffffffffffffff16021790555050565b600061131b61131483600a610ff8565b6064611030565b9050919050565b6000611339611332836014610ff8565b6064611030565b9050919050565b600061134e60095483611046565b6009819055506009549050919050565b600061136c60065483611046565b60068190555060065490509190505600a165627a7a7230582033d13f59c598efe2ecfcdc30cc86842f6106b91082b9bc4a7815686ec01e9e370029",
  "source": "pragma solidity ^0.4.22;\n\nimport './FishBase.sol';\n\n//@title Base Contract for FishWarChain. Holds all functions related to the game's round.\n//@author Inspius (https://www.inspius.com)\ncontract FishCore is FishBase {\n\t\n\tconstructor() public {\n\t}\n\n\t//@dev end round, give top players the bonus and start the new game, only onwer can.\n\tfunction endRound(uint256 clientRound, address[] clientPlayers, uint256[] values)\n\t\tpublic\n\t\tonlyOwner\n\t{\n\t\trequire(now > endTime);\n\t\trequire(clientRound == round);\n\n\t\t//@dev update the player result from client into the contract\n\t\tuint256 index = 0;\n        while (index < clientPlayers.length) {\n            if(players[clientPlayers[index]].playerRound == round) {\n\t\t\t\tPlayer storage player = players[clientPlayers[index]];\n\t\t\t\t//@dev update the player value and send reward\n\t\t\t\tplayer.playerValue = values[index];\n\t\t\t\tasyncSend(clientPlayers[index], values[index]);\n\t\t\t\tlastRoundPlayers[clientPlayers[index]] = values[index];\n\t\t\t}\n            index += 1;\n        }\n\t\t//@dev give the top players reward from leader bonus\n\t\tif(index > 0 && players[clientPlayers[0]].playerRound == round) {\n\t\t\t//@dev cut the top 1 player reward from current leader bonus price\n\t\t\tuint256 bonusForPlayerTop1 = SafeMath.div(SafeMath.mul(currentLeaderBonusPrice, 50), 100);\n\t\t\tasyncSend(clientPlayers[0], bonusForPlayerTop1);\n\t\t\tlastRoundPlayers[clientPlayers[0]] = SafeMath.add(lastRoundPlayers[clientPlayers[0]], bonusForPlayerTop1);\n\t\t\tcurrentLeaderBonusPrice = SafeMath.sub(currentLeaderBonusPrice, bonusForPlayerTop1);\n\t\t}\n\t\tif(index > 1 && players[clientPlayers[1]].playerRound == round) {\n\t\t\t//@dev cut the top 2 player reward from current leader bonus price\n\t\t\tuint256 bonusForPlayerTop2 = SafeMath.div(SafeMath.mul(currentLeaderBonusPrice, 30), 100);\n\t\t\tasyncSend(clientPlayers[1], bonusForPlayerTop2);\n\t\t\tlastRoundPlayers[clientPlayers[1]] = SafeMath.add(lastRoundPlayers[clientPlayers[1]], bonusForPlayerTop2);\n\t\t\tcurrentLeaderBonusPrice = SafeMath.sub(currentLeaderBonusPrice, bonusForPlayerTop2);\n\t\t}\n\t\tif(index > 2 && players[clientPlayers[2]].playerRound == round) {\n\t\t\t//@dev cut the top 3 player reward from current leader bonus price\n\t\t\tuint256 bonusForPlayerTop3 = SafeMath.div(SafeMath.mul(currentLeaderBonusPrice, 20), 100);\n\t\t\tasyncSend(clientPlayers[2], bonusForPlayerTop3);\n\t\t\tlastRoundPlayers[clientPlayers[2]] = SafeMath.add(lastRoundPlayers[clientPlayers[2]], bonusForPlayerTop3);\n\t\t\tcurrentLeaderBonusPrice = 0;\n\t\t}\n\n\t\t//@dev go for new round\n\t\tstartNewRound();\n\t\t\n\t}\n\n\t//@dev start a new round, only owner can.\n\tfunction startNewRound()\n\t\tpublic\n\t\tonlyOwner\n\t{\n\t\trequire(now > endTime);\n\t\t\n\t\t//@dev update end time for this new round\n\t\tendTime = SafeMath.add(now, roundTime);\n\n\t\t//@dev update round to new round\n        round = SafeMath.add(round, 1);\n\t\t\n\t\t//@dev move the current leader bonus to next round bonus, in case number of players < 3\n\t\tif(currentLeaderBonusPrice > 0) {\n\t\t\tnextLeaderBonusPrice = SafeMath.add(nextLeaderBonusPrice, currentLeaderBonusPrice);\n\t\t}\n\n\t\t//@dev use next leader bonus price as current leader bonus price\n\t\tcurrentLeaderBonusPrice = nextLeaderBonusPrice;\n\t\t\n\t\t//@dev reset next leader bonus price to zero\n\t\tnextLeaderBonusPrice = 0;\n\n\t\t//@dev use leader bonus price as start total round price\n\t\ttotalRoundPrice = currentLeaderBonusPrice;\n\n\t\t//emit started new round event\n\t\temit eventStartNewRound(round, endTime);\n\t}\n\n\t//@dev buy a fish to join the game\n\tfunction buy()\n        public\n        payable\n    {\n\t\t//@dev owner can't play the game.\n\t\trequire(msg.sender != owner);\n\n        createPlayer(msg.value);\n    }\n\t\n\t//@dev create player to join this round.\n    function createPlayer(uint256 incomingEthereum)\n        internal\n    {\n\t\trequire(incomingEthereum == basePrice);\n\t\trequire(now <= endTime);\n\n\t\t//@dev cut the dev fee\n\t\tuint256 devFee = getDevFee(incomingEthereum);\n\t\tasyncSend(owner, devFee);\n\n\t\t//@dev cut the leader bonus fee to next round\n\t\tuint256 leaderBonusFee = getLeaderBonusFee(incomingEthereum);\t\t\n\t\taddNextLeaderBonus(leaderBonusFee);\n\t\t\n\t\tPlayer storage player = players[msg.sender];\n\t\t\n\t\t//@dev reset player value and round for this round\n\t\tif(player.playerRound != round) {\n\t\t\tplayer.playerValue = 0;\n\t\t\tplayer.playerRound = round;\n\t\t}\n\n\t\tuint256 valueAfterFee = SafeMath.sub(msg.value, SafeMath.add(devFee, leaderBonusFee));\n\t\t\n\t\t//@dev add the player value\n\t\tplayer.playerValue = SafeMath.add(player.playerValue, valueAfterFee);\n\t\t\n\t\t//@dev add the value to this round\n\t\taddTotalRoundPrice( valueAfterFee );\n\t\t\n\t\t//@dev emit created player event\n\t\temit eventCreatePlayer(msg.sender, player.playerRound, player.playerValue);\n    }\n\t\n\t//@dev fallback function to handle ethereum that was send straight to the contract\n\tfunction()\n        payable\n        public\n    {\n        revert(); \n    }\n}\n",
  "sourcePath": "/var/www/html/FishWarChainContract/contracts/FishCore.sol",
  "compiler": {
    "name": "solc",
    "version": "0.4.23+commit.124ca40d.Emscripten.clang"
  },
  "schemaVersion": "2.0.0",
  "updatedAt": "2018-07-10T10:05:29.272Z"
}